:100000000C9431010C9459010C9459010C94590130
:100010000C9459010C9419170C9459010C94590122
:100020000C9459010C9459010C9459010C945901E8
:100030000C9459010C9459010C9459010C945901D8
:100040000C9477160C9459010C94E7160C94C11675
:100050000C9459010C9459010C9459010C945901B8
:100060000C9458150C94590107634236B79BD8A7D6
:100070001A39685618AEBAAB558C1D3CB7CC5763CD
:10008000BD6DEDFD753EF6177231BF000000803F7B
:1000900008000000BE922449123EABAAAA2ABECD97
:1000A000CCCC4C3E00000080BEABAAAAAA3E000009
:1000B0000000BF000000803F000000000008417801
:1000C000D3BB4387D1133D190E3CC3BD4282AD2B38
:1000D0003E68EC8276BED98FE1A93E4C80EFFFBE30
:1000E00001C4FF7F3F000000000000407A10F35A77
:1000F00000A0724E18090010A5D4E80000E8764868
:10010000170000E40B54020000CA9A3B000000E113
:10011000F505000080969800000040420F000000A6
:10012000A08601000000102700000000E803000086
:1001300000006400000000000A0000000000010050
:10014000000000002C76D888DC674F0823DFC1DF71
:10015000AE59E1B1B796E5E3E453C63AE651997674
:1001600096E8E6C28426EB898C9B62ED407C6FFCAE
:10017000EFBC9C9F40F2BAA56FA5F490055A2AF7F0
:100180005C936B6CF9676DC11BFCE0E40D47FEF5F9
:1001900020E6B500D0ED902E030094357705008061
:1001A000841E080000204E0A000000C80C333333C0
:1001B000330F986E12831141EF8D2114893BE65560
:1001C00016CFFEE6DB18D1844B381BF77C1D901D43
:1001D000A4BBE424203284725E228100C9F124ECA5
:1001E000A1E53D27005EBCE2613FDD83C29C7E202D
:1001F000A3FD1F41009D23BE46DB65F88C11AF3285
:10020000CA57E97400000000240027002A000000FB
:100210000000250028002B0000000008000201005B
:1002200000030407000000000000000000000000C0
:100230002300260029000404040404040404020228
:100240000202020203030303030301020408102055
:100250004080010204081020010204081020BC178D
:10026000F32111241FBECFEFD8E0DEBFCDBF26E0C3
:10027000A0E3B2E001C01D92AD3DB207E1F712E08C
:10028000A0E0B1E0E4E3F5E502C005900D92A033F3
:10029000B107D9F711E0C0E3D1E004C02197FE0116
:1002A0000E94F325CF32D107C9F70E94D4190C94CC
:1002B0008D2A0C9400002091DC04260F3327331F75
:1002C00021323105ECF420912705FC0190E080E01B
:1002D000243069F082E00895A091DC042191AC0102
:1002E00046545B4FA40FB52FB11D2C930196861772
:1002F00098F38091DC04680F6093DC0480E008953B
:1003000081E00895089508950895E091B8048091DA
:10031000B704E81730F4F0E0E956FB4F808190E035
:1003200008958FEF9FEF08959091B8048091B704DE
:100330002FEF3FEF981748F4E92FF0E0E956FB4F15
:10034000208130E09F5F9093B804C90108958091A7
:10035000B7049091B804891B990B0895CF92DF924E
:10036000EF92FF920F931F93CF93DF937C01CB010A
:100370008A0120912D05222389F0EB016B01C40E27
:10038000D51ECC15DD0569F06991D701ED91FC9181
:100390000190F081E02DC7010995F3CF642F0E94F1
:1003A0005B01C801DF91CF911F910F91FF90EF90FA
:1003B000DF90CF900895CF93DF931F92CDB7DEB734
:1003C000698320912D052223F9F0209150052032D8
:1003D00058F021E030E0FC013383228390E080E09C
:1003E0000F90DF91CF91089580912E05E82FF0E0D6
:1003F000E15DFA4F998190838F5F80932E05809302
:10040000500581E090E0ECCF61E0CE0101960E94C2
:100410005B01F7CF833081F028F4813099F082308E
:10042000A9F008958730A9F08830C9F08430B1F47C
:10043000809180008F7D03C0809180008F778093B2
:100440008000089584B58F7784BD089584B58F7D2D
:10045000FBCF8091B0008F778093B000089580919A
:10046000B0008F7DF9CFCF93DF93282F30E0F901D3
:10047000E85EFD4F8491F901E65BFD4FD491F901EF
:10048000EA5CFD4FC491CC23A1F081110E940A02C5
:10049000EC2FF0E0EE0FFF1FE45DFD4FA591B4914E
:1004A000EC91ED2381E090E009F480E0DF91CF91C1
:1004B000089580E090E0FACF1F93CF93DF93282F29
:1004C00030E0F901E85EFD4F8491F901E65BFD4FF4
:1004D000D491F901EA5CFD4FC491CC23A9F0162F09
:1004E00081110E940A02EC2FF0E0EE0FFF1FE25F85
:1004F000FD4FA591B4918FB7F894EC91111108C0FC
:10050000D095DE23DC938FBFDF91CF911F910895AB
:10051000DE2BF8CF1092270581E0809326051092FC
:10052000010561E082E10E945C0261E083E10E94DA
:100530005C02E9EBF0E080818E7F808380818D7F9B
:10054000808388E48093B80085E48093BC0008959C
:10055000CF93DF9391E09093B9048823B9F0C091D1
:10056000B800D091BA008091BC008A7B8093BC0017
:1005700060E082E10E945C0260E083E10E945C0234
:100580000E948A02D093BA00C093B800DF91CF9145
:100590000895CF93DF9390E0FC01E65BFD4F24913B
:1005A0008A5C9D4FFC0184918823C9F090E0880FFC
:1005B000991FFC01EC5FFD4FA591B491FC01E25F36
:1005C000FD4FC591D49161110DC09FB7F8948C91E6
:1005D000209582238C938881282328839FBFDF91D5
:1005E000CF910895623051F49FB7F8943C91822FD7
:1005F000809583238C93E8812E2BEFCF8FB7F894CF
:10060000EC912E2B2C938FBFEACF8E508064809379
:100610007C0080917A00806480937A0080917A00D7
:1006200086FDFCCF809178009091790008953FB7C6
:10063000F8948091930490919404A0919504B091C2
:10064000960426B5A89B05C02F3F19F00196A11D61
:10065000B11D3FBFBA2FA92F982F8827BC01CD010C
:10066000620F711D811D911D42E0660F771F881F6B
:10067000991F4A95D1F70895CF92DF92EF92FF929A
:100680000F931F93CF93DF93D091500581E0D13228
:1006900008F09CC0C0914F050E9417036B017C01BC
:1006A0008091270581116CC082E08093270581E04D
:1006B000809326058FEF8093250510922405D09313
:1006C0002305AFE2B5E0E3E0F5E080E0D8138DC0AC
:1006D0001092020580910205CC0FC82BC093020531
:1006E00080910105813009F084C0109201050E94BB
:1006F00017036B017C01809102058093BB00809100
:10070000290590912A05A0912B05B0912C05892BE4
:100710008A2B8B2BA1F00E941703009129051091C1
:100720002A0520912B0530912C056C197D098E0925
:100730009F09061717072807390708F442C0809158
:10074000BC0083FDD8CF85EC8093BC000E941703CA
:100750006B017C0180912705823009F44CC08091A7
:1007600025058F3F09F469C080912505803209F481
:1007700066C080912505803309F463C084E026C0FB
:100780008091290590912A05A0912B05B0912C0507
:10079000892B8A2B8B2B09F483CF0E94170300919E
:1007A000290510912A0520912B0530912C056C19F3
:1007B0007D098E099F09061717072807390708F0D2
:1007C0006FCF809128050E94A80285E010922E0527
:1007D0001092500510922D05DF91CF911F910F912E
:1007E000FF90EF90DF90CF9008959D9191938F5F50
:1007F0006DCF85EEA9CF8091290590912A05A09112
:100800002B05B0912C05892B8A2B8B2B09F4A2CFB9
:100810000E9417030091290510912A0520912B05AC
:1008200030912C056C197D098E099F090617170751
:100830002807390708F08ECFC4CF80E0C7CF82E009
:10084000C5CF83E0C3CF8F929F92AF92BF92CF92DA
:10085000DF92EF92FF924B015C010E9417036B0144
:100860007C010E9417036C197D098E099F09683E5F
:10087000734081059105A8F321E0821A9108A1082F
:10088000B10888EEC80E83E0D81EE11CF11C81146B
:100890009104A104B10429F7FF90EF90DF90CF906D
:1008A000BF90AF909F908F9008952FB7F89460916C
:1008B0008F047091900480919104909192042FBFC5
:1008C0000895DC01ED91FC910190F081E02D0994F7
:1008D000DB0114964D915C9115976D917C91DC0133
:1008E000ED91FC910280F381E02D0994AF92BF92CB
:1008F000CF92DF92EF92FF920F931F93CF93DF93EC
:100900006C017B018B01040F151FEB015E01AE181A
:10091000BF08C017D10759F06991D601ED91FC913C
:100920000190F081E02DC6010995892B79F7C50169
:10093000DF91CF911F910F91FF90EF90DF90CF90BB
:10094000BF90AF900895FC01538D448D252F30E06A
:10095000842F90E0821B930B541710F0CF960895CC
:1009600001970895FC01918D828D981761F0A28DF9
:10097000AE0FBF2FB11D5D968C91928D9F5F9F73BF
:10098000928F90E008958FEF9FEF0895FC01918D75
:10099000828D981731F0828DE80FF11D858D90E0E2
:1009A00008958FEF9FEF0895FC01918D228D892F7F
:1009B00090E0805C9F4F821B91098F739927089567
:1009C0008DE595E00E94D40421E0892B09F420E014
:1009D000822F089580E090E0892B29F00E94E004A6
:1009E00081110C9400000895FC01A48DA80FB92F6B
:1009F000B11DA35ABF4F2C91848D90E001968F7347
:100A00009927848FA689B7892C93A089B1898C9165
:100A1000837080648C93938D848D981306C00288B4
:100A2000F389E02D80818F7D80830895EF92FF927E
:100A30000F931F93CF93DF93EC0181E0888F9B8D01
:100A40008C8D98131AC0E889F989808185FF15C0BB
:100A50009FB7F894EE89FF896083E889F9898081DE
:100A60008370806480839FBF81E090E0DF91CF91AD
:100A70001F910F91FF90EF900895F62E0B8D10E0CF
:100A80000F5F1F4F0F731127E02E8C8D8E110CC03E
:100A90000FB607FCFACFE889F989808185FFF5CF89
:100AA000CE010E94F404F1CFEB8DEC0FFD2FF11D70
:100AB000E35AFF4FF0829FB7F8940B8FEA89FB89C6
:100AC00080818062CFCFCF93DF93EC01888D882324
:100AD000B9F0AA89BB89E889F9898C9185FD03C0A1
:100AE000808186FD0DC00FB607FCF7CF8C9185FF86
:100AF000F2CF808185FFEDCFCE010E94F404E9CFD3
:100B0000DF91CF91089520913C02211109C021E08D
:100B100020933C023091FA052091FB053CBD2DBD90
:100B200060E0FC0184810C945C0261E0FC01848142
:100B30000E945C0280913C02811110923C02089557
:100B40008EBD00000DB407FEFDCF8EB508958FEF6A
:100B50000C94A0050F931F93CF93DF93EC010E9499
:100B600055048B010E94A7058F3F69F00E94550430
:100B7000601B710B6C177D07A8F380E0DF91CF91AC
:100B80001F910F91089581E0F9CFCF92DF92EF92FC
:100B9000FF920F931F93CF93DF93EC01162F690100
:100BA0007A018E81882389F08F8198859C012F5F3F
:100BB0003F4F38872F838230924018F40E94A70558
:100BC000F3CFCE010E9495051E82CE010E948305BF
:100BD0008CE291E00E94AA05812F80640E94A0050A
:100BE00008E110E0D701C601002E04C0B695A79514
:100BF000979587950A94D2F70E94A005085011098D
:100C0000083F8FEF180771F78FEF0E94A00510E0E3
:100C10000E94A7058A8787FF04C01F3F11F01F5F4E
:100C2000F7CFDF91CF911F910F91FF90EF90DF9061
:100C3000CF900895CF92DF92EF92FF920F93CF93D0
:100C4000DF93EC01690182E14115510561057105F0
:100C500099F08B85833039F089E0440F551F661F6A
:100C6000771F8A95D1F79A01AB0168E1CE010E9406
:100C7000C505882319F084E08D832DC08EEF0E9476
:100C8000A00576018EEFD81AF70181917F010E94AD
:100C9000A005EC14FD04C1F78FEF0E94A0058FEFB3
:100CA0000E94A0050E94A7058A878F71853071F484
:100CB000011116C0CE010E94950581E0DF91CF9110
:100CC0000F91FF90EF90DF90CF90089581E18D8399
:100CD000CE010E949505CE010E94950580E0EECFE1
:100CE00088E592E00E94AA05811102C085E1C4CF87
:100CF00020E030E0A9016DE0CE010E94C505882307
:100D000011F084E1B9CF0E94A7058111FACFD2CFAB
:100D10000F9340913E0250913F02609140027091CA
:100D20004102411551056105710589F0082F22E442
:100D300032E090E080E00E941A06882349F0109289
:100D40003E0210923F02109240021092410281E056
:100D50000F9108950F93CF93C82F80913D02811179
:100D600005C0C1E08C2FCF910F91089540910001F3
:100D70005091010160910201709103010C2F22E456
:100D800032E090E080E00E941A06811102C0C0E0CB
:100D9000E9CFCC2331F381E00E9488068823B9F3A0
:100DA00010923D02DFCFAF92BF92CF92DF92EF92CF
:100DB000FF921F93CF93DF936B017C01142F8091DF
:100DC000000190910101A0910201B09103018C15E5
:100DD0009D05AE05BF0509F4ADC081E00E94AA06DD
:100DE0008823E1F1809106008823A1F08091000022
:100DF00090910100A0910200B0910300C816D9069D
:100E0000EA06FB0639F48091070090910800892BCF
:100E100009F44FC0C0920000D0920100E09202009D
:100E2000F092030080910B00A7019601833039F006
:100E300099E0220F331F441F551F9A95D1F761E1A6
:100E400090E080E00E94C505882391F083E08093C4
:100E5000050090E080E00E94950580E0DF91CF9151
:100E60001F91FF90EF90DF90CF90BF90AF900895CB
:100E70000E945504EB010E94A70580930A008F3F52
:100E800079F40E9455046C1B7D0B6D32714098F310
:100E90008FE08093050090E080E00E949505D9CF17
:100EA0008E3FC1F5109208001092070081E08093F8
:100EB0000600C2E4D2E082E4A82E84E0B82E0E94AC
:100EC000A7058993AC16BD06D1F7809107009091D4
:100ED00008009E5F9093080080930700209109000E
:100EE000222319F081159240E8F0809106008823B2
:100EF000C9F080910700909108009C012F5F3F4F3F
:100F000030930800209307008230924028F40E941A
:100F1000A705EFCF8DE0BDCF90E080E00E94950562
:100F200010920600C0920001D0920101E0920201ED
:100F3000F092030140913D02412B40933D0281E03C
:100F40008DCF4F925F926F927F928F929F92AF92CE
:100F5000BF92CF92DF92EF92FF920F931F93CF93A6
:100F6000DF93EC01423051056105710590F480E09A
:100F7000DF91CF911F910F91FF90EF90DF90CF9075
:100F8000BF90AF909F908F907F906F905F904F90A9
:100F9000089589859A85AB85BC850196A11DB11DF3
:100FA00084179507A607B70710F3CB88DC88ED8870
:100FB000FE888F89803109F042C0BB27A72F962F6A
:100FC000852F480159012A013B01C80ED91EEA1E8E
:100FD000FB1E8091000190910101A0910201B0914E
:100FE0000301C816D906EA06FB0699F58F898031F8
:100FF000C1F5B301A201552766277727440F551F76
:101000004E5B5D4FFA019182808280913D0281604A
:1010100080933D028A89823080F08D819E81AF81EC
:10102000B8858C0D9D1DAE1DBF1D80933E02909313
:101030003F02A0934002B093410281E099CFDB01CF
:10104000CA01E7E0B695A79597958795EA95D1F7F8
:10105000B8CF40E0C701B6010E94D3068111C6CFC8
:1010600086CFB301A2014F77552766277727440F14
:10107000551F440F551F4E5B5D4FFA0180829182D0
:10108000A282B382C2CF8F929F92AF92BF92CF9231
:10109000DF92EF92FF920F931F93CF93DF93FC01A8
:1010A00081859285A385B4850196A11DB11D841704
:1010B0009507A607B70770F480E0DF91CF911F91E5
:1010C0000F91FF90EF90DF90CF90BF90AF909F90E7
:1010D0008F90089583889488A588B6888789803101
:1010E00089F5BB27A72F962F852FE9016A017B0180
:1010F0008F01BC01CD01680D791D8A1D9B1D80905B
:10110000000190900101A0900201B09003018616A9
:101110009706A806B90601F5F8018789803111F50F
:10112000DD24EE24FF24F601EE0FFF1FEE5BFD4FE2
:1011300080819181B0E0A0E088839983AA83BB83FA
:1011400081E0BBCFDB01CA01C7E0B695A7959795B3
:101150008795CA95D1F7C9CF40E00E94D306811187
:10116000DBCFAACFE894C7F8DD24EE24FF24F601F4
:10117000EE0FFF1FEE0FFF1FEE5BFD4F8081918191
:10118000A281B381BF70D8CF8F929F92AF92BF924E
:10119000CF92DF92EF92FF920F931F93CF93DF9343
:1011A000EC018D8181110EC080E0DF91CF911F9104
:1011B0000F91FF90EF90DF90CF90BF90AF909F90F6
:1011C0008F9008950B891C892D893E890417150776
:1011D0002607370748F34A015B01823031F48A86DB
:1011E0009B86AC86BD8681E0E0CF81149104A1048A
:1011F000B10449F41E821F82188619861A861B863E
:101200001C861D86F0CF0A851B852C853D85EB8DC0
:10121000FC8D858590E00996B901A80141505109DE
:1012200061097109082E04C0769567955795479511
:101230000A94D2F775016401E1E0CE1AD108E10801
:10124000F10804C0F694E794D794C7948A95D2F72E
:10125000C416D506E606F70620F0012B022B032B59
:1012600011F58F89988DA98DBA8D8E839F83A8875C
:10127000B9878E010A5F1F4FC114D104E104F10444
:1012800009F4ADCF4E815F816885798598018B8D9A
:101290009C8D0E94430891E0C91AD108E108F10829
:1012A0008111EACF81CFC41AD50AE60AF70AE1CF45
:1012B0003F924F925F926F927F928F929F92AF92E6
:1012C000BF92CF92DF92EF92FF920F931F93CF9333
:1012D000DF93CDB7DEB72C970FB6F894DEBF0FBE05
:1012E000CDBF5C01DC015B968D909C905C9716965F
:1012F0004D905D906D907C9019974114510461045C
:10130000710409F468C0BFEF4B1A5B0A6B0A7B0AD1
:10131000312CF40181859285A385B4859C01AD01B2
:101320002F5F3F4F4F4F5F4F29873A874B875C872F
:10133000730162011D821E821F821886F40181855D
:101340009285A385B4852D813E814F8158852817CC
:1013500039074A075B0708F056C089859A85AB852F
:10136000BC858C159D05AE05BF0550F482E0C82EE6
:10137000D12CE12CF12C92E0492E512C612C712CB6
:101380009E012F5F3F4FB701A601C4010E94430891
:101390008823C9F189819A81AB81BC81892B8A2BF1
:1013A0008B2B09F1260137019FEF491A590A690A67
:1013B000790A2D813E814F8158852F5F3F4F4F4FD6
:1013C0005F4F2D833E834F8358873FEFC31AD30A65
:1013D000E30AF30AB3CFF401408051806280738046
:1013E0003324339496CFC414D504E604F70409F7E4
:1013F0000FEF1FEF2FEF3FE0B701A601C4010E94DE
:10140000A107811119C080E02C960FB6F894DEBFB9
:101410000FBECDBFDF91CF911F910F91FF90EF9045
:10142000DF90CF90BF90AF909F908F907F906F9004
:101430005F904F903F900895D50116964D915D9124
:101440006D917C911997411551056105710539F030
:1014500097018601C4010E94A1078823A1F2D5014A
:101460001696CD92DD92ED92FC921997332051F0B1
:10147000D701C6010196A11DB11DF401808391839E
:10148000A283B383F5018789908DA18DB28D892BBD
:101490008A2B8B2B39F48481C78AD08EE18EF28E11
:1014A00080688483F50184818062848381E0ACCF8D
:1014B0001F93CF93DF93EC01162F8C8187FF2AC0F7
:1014C0006E857F858889998941E00E94D3068823AB
:1014D00061F1EA8980E2E89FF0011124EE5BFD4FA3
:1014E000309719F18D81823040F48B899C89AD89C8
:1014F000BE89848F958FA68FB78F8F89988D938F94
:10150000828F8F89988DA98DBA8DB58BA48B8C8194
:101510008F778C83111103C08C818F7E8C83812FF8
:10152000DF91CF911F910C94AA0680E0DF91CF91BB
:101530001F9108951F93CF93DF93EC018D8181302C
:1015400031F090E080E0DF91CF911F9108958C8180
:1015500081FFF7CF82FD1BC090E080E00E948305F1
:101560000E94A705182F90E080E00E9495051F3F7C
:1015700041F78C8185FF1EC08D81882321F060E0BA
:10158000CE010E94580A8C818F7D8C83DACF4B89E3
:101590005C896D897E898A859B85AC85BD8584172C
:1015A0009507A607B707C1F2CE010E94C4088111B2
:1015B000D3CFC7CF40913E0250913F02609140028D
:1015C00070914102452B462B472B21F080E00E9471
:1015D0008806B7CF80618C832A853B85317080E097
:1015E00092E0821B930BAFCF9F92AF92BF92CF92AC
:1015F000DF92EF92FF920F931F93CF93DF9300D070
:1016000000D01F92CDB7DEB78C016D83DC0115963B
:101610008C911597813009F0B9C014968C9181FF97
:10162000B5C082FD9FC0D8015B96ED91FC915C979F
:101630001A96AD90BD90CD90DC901D9794809A94B1
:10164000B601A50189E076956795579547958A95E6
:10165000D1F79422B1E0BB22992009F49FC0D801B0
:101660005B96ED91FC915C971696CD90DD90ED9098
:10167000FC901997B2E0CB1AD108E108F1088585F2
:1016800004C0CC0CDD1CEE1CFF1C8A95D2F74685ED
:10169000578560897189C40ED51EE61EF71EC90CD8
:1016A000D11CE11CF11CA114B10409F00AC1F8011C
:1016B000428553856485758583899489A589B68912
:1016C000481759076A077B0708F4FBC081E00E94AE
:1016D000AA06882309F45AC0C0920001D0920101E1
:1016E000E0920201F092030180913D0281608093BB
:1016F0003D02F501EE5BFD4F8D818083F80182850F
:101700009385A485B5850196A11DB11D8287938718
:10171000A487B5874389548965897689481759070D
:101720006A077B0738F42481838B948BA58BB68B57
:1017300020682483D80114968C9183FD9FC081E09A
:1017400090E00F900F900F900F900F90DF91CF913E
:101750001F910F91FF90EF90DF90CF90BF90AF90CF
:101760009F900895F8014389548965897689828517
:101770009385A485B585481759076A077B0709F43F
:1017800052CFC8010E94C40881114DCF81E090E082
:10179000D80113969C938E93129749C0D801169640
:1017A0004D915D916D917C911997A114B10409F04F
:1017B00071C0411551056105710589F557968D91E7
:1017C0009D910D90BC91A02D0097A105B10509F048
:1017D0004FC0C8010E9458098823C1F2D8015B9606
:1017E000ED91FC915C971696CD90DD90ED90FC907C
:1017F0001997B2E0CB1AD108E108F108858504C039
:10180000CC0CDD1CEE1CFF1C8A95D2F74685578553
:1018100060897189C40ED51EE61EF71E48CF9E0151
:101820002F5F3F4FCF010E944308811103C090E01A
:1018300080E087CF89819A81AB81BC81F801238DBB
:10184000348DF901278948EF5FEF60E070E02031C7
:1018500021F048EF5FEF6FEF7FE084179507A60751
:10186000B70730F0C8010E9458098111F8CE8ECF19
:10187000F80186839783A087B187F1CEF80185812F
:10188000882309F483CF61E0C8010E94580A8111BE
:1018900056CF7CCF6A017B01B2E0CB1AD108E108B8
:1018A000F108858504C0CC0CDD1CEE1CFF1C8A955C
:1018B000D2F74685578560897189C40ED51EE61E0C
:1018C000F71E41E0C701B6010E94D306811111CF76
:1018D0005DCFFC0123812223E1F08181682B6083AD
:1018E000828191E090932D0580934F0510922E05F3
:1018F0001092500581E595E00E94DB010E943C03B7
:10190000282F30E081E090E0232B11F090E080E080
:10191000089530E020E0F6CFEF92FF920F931F93EF
:10192000CF938C01FC0184E0C0E0262F30E060FF03
:1019300002C09589C92BB90175956795815031967B
:101940008111F3CF413011F4F8014489F801658524
:10195000C62BC42B7801FEE0EF0EF11CF801628962
:101960006C2BC7010E94690CF801628960956C2399
:10197000C701CF911F910F91FF90EF900C94690CCC
:101980000F931F93CF93DF93062F0F70423041F4D4
:1019900040E0602FDF91CF911F910F910C948C0C40
:1019A000142FEC0170E084E0759567958A95E1F756
:1019B000CE010E948C0C412F602FCE01EBCFFC0199
:1019C00084858823A1F0218532852115310521F4F4
:1019D000611107C0158606C021303105D9F76111A4
:1019E000F9CF85876585CF010E960C94690C089513
:1019F00021E001C0220F6A95EAF7DC011C962C93C6
:101A00001C971A965C934E931997ED91FC91048460
:101A1000F585E02D60E00994DC01ED91FC910684F0
:101A2000F785E02D41E0099581E090E00895DC0123
:101A3000ED91FC910684F785E02D40E009940F9329
:101A40001F93CF93DF93CDB7DEB728970FB6F894E7
:101A5000DEBF0FBECDBF009117011091180120917C
:101A6000190130911A010D831E832F83388700914D
:101A70001B0110911C0120911D0130911E01098351
:101A80001A832B833C83FC012781621710F06FEFD0
:101A9000620F70E0FC0130856C0F7D1FFB0130315F
:101AA00081F4243071F46181606828960FB6F8944F
:101AB000DEBF0FBECDBFDF91CF911F910F910C9470
:101AC000170D6581F1CF61E00E94170D8BE39FE157
:101AD0000197F1F708950F931F93CF93DF93EC01D4
:101AE000423018F08C8188608C834F836887222372
:101AF00029F0413019F48C8184608C8364E670E0B5
:101B000080E090E00E9423046C8164FD57C0E8816E
:101B1000F9810684F785E02D42E063E0CE01099566
:101B20008BE496E40197F1F7E881F9810684F78563
:101B3000E02D42E063E0CE01099503E512E0C80123
:101B40000197F1F7E881F9810684F785E02D42E0FD
:101B500063E0CE010995C8010197F1F7E881F981A9
:101B60000684F785E02D42E062E0CE010995C801C8
:101B70000197F1F76C816062CE010E94170D8BEE28
:101B800090E00197F1F784E08D836CE0CE010E9434
:101B9000170DCE010E94630D82E08E8366E0CE01B8
:101BA0000E94170DE881F9810484F585E02D6FEF1F
:101BB000CE01DF91CF911F910F9109946062CE0108
:101BC0000E94170D8BE496E40197F1F76C81606237
:101BD000CE010E94170D03E512E0C8010197F1F74D
:101BE0006C816062CE010E94170DC1CFEF92FF920F
:101BF0000F931F93CF93DF93EC01062FF42EE22E69
:101C00008B85888B1092B8041092B70410922E0521
:101C1000109250050E948A0282E891E09093DB04C2
:101C20008093DA0483E891E09093DF048093DE04EC
:101C3000888911E010932D0580934F050E943C0385
:101C400081111CC0198B81E595E00E9494018E875B
:101C50008989882339F01F861C8260E0CE010E96A8
:101C60000E94690C2E2D4F2D602FCE01DF91CF9158
:101C70001F910F91FF90EF900C946B0D198AE8CF94
:101C800008950895089590E080E00895DC0180E0D3
:101C9000615090F09D919827E92FEF70F0E0EC51A2
:101CA000FE4F2491E92FE295EF70F0E0EC50FE4FEB
:101CB000E491822F8E27ECCF0895DC012C911196B0
:101CC000ED91FC91F8948181822B81839281322F56
:101CD00030959323928387E090E00197F1F781811B
:101CE0008323818383E290E00197F1F790817894D8
:101CF000EFECF0E03197F1F7922381E009F480E016
:101D00000895FC0190810180F281E02D292F20951A
:101D100060FF14C0F8948281822382838181892BA1
:101D20008183A3E2B0E01197F1F78281982B92832F
:101D3000789487ED90E00197F1F70895F894828107
:101D4000822382838181892B8183AFEFB0E0119759
:101D5000F1F78281982B928378948FE090E0EBCF1B
:101D6000DF92EF92FF920F931F93CF93DF93EC01DB
:101D7000D62EE42E08E010E0FF24F39461E08D2DD0
:101D80008F2109F460E0CE010E94810EFF0C01500A
:101D90001109A1F7E11010C0F894E981FA8191814D
:101DA0008881809589238183E981FA819281888164
:101DB0008095892382837894DF91CF911F910F9131
:101DC000FF90EF90DF900895FC0190810180F281F7
:101DD000E02DF8948181292F2095822381837894A6
:101DE0003DE743E050E0315029F1DA011197F1F776
:101DF00080818923C1F3F894828182238283818147
:101E0000892B81837894ABE7B7E01197F1F7F894C9
:101E1000818182238183A3E1B1E01197F1F7808171
:101E2000982381E009F080E07894E3E6F6E03197CA
:101E3000F1F7089580E00895CF93DF93C82F8EE5E2
:101E400096E00E94E40E882391F0CC3C49F020F407
:101E5000C53581F080E00BC0CC3E11F0C03FD1F71A
:101E600040E06C2F8EE596E00E94B00E81E0DF919D
:101E7000CF91089540E065E58EE596E00E94B00EB2
:101E8000CFE6D6E0699140E08EE596E00E94B00E84
:101E900086E0C737D807B1F7E9CF0F931F93CF93E9
:101EA000DF93C0913A02D0913B028E0123E0000FF4
:101EB000111F2A95E1F7080F191FF8014483558374
:101EC000668377838091870490918804833091059D
:101ED00081F00497E9F02196C230D105D9F0D09372
:101EE0003B02C0933A0280E0DF91CF911F910F91A6
:101EF00008958FE00E940503BC01990F880B990B90
:101F00000E946724F8016083718382839383E3CF07
:101F100080E1F0CF10923B0210923A0281E0E4CFD0
:101F20004F925F926F927F928F929F92AF92BF92E9
:101F3000CF92DF92EF92FF920F931F93CF93DF9395
:101F40008C01EB01C880D980EA80FB808C809D8069
:101F5000AE80BF80A7019601688579858A859B85BB
:101F60000E94F9252B013C01A50194016C857D851A
:101F70008E859F850E94F9259B01AC01C301B201AA
:101F80000E9466269B01AC01F801208331834283C5
:101F90005383C501B4010E94C6249B01AC01C70153
:101FA000B6010E94F925F8016483758386839783BF
:101FB000DF91CF911F910F91FF90EF90DF90CF9025
:101FC000BF90AF909F908F907F906F905F904F9059
:101FD0000895EF92FF920F931F93CF93DF9385E5C0
:101FE0000E941C0F882331F040E06EEB8EE596E0F6
:101FF0000E94B00EC7E7D6E088E0E82EF12C10E092
:1020000001E08EE596E00E945D0E8111102B000F1D
:1020100081E0E81AF108A9F7199386E0C038D807DB
:1020200059F768E087E796E00E94460E91E020911C
:102030007F06281390E0892FDF91CF911F910F9198
:10204000FF90EF900895CF93C091810685E50E949F
:102050001C0F882341F041E0C11140E064E48EE5AB
:1020600096E00E94B00E80918106882349F18EE5AA
:1020700096E00E945D0E8823D1F30E94E90F6091E3
:10208000770680917806909180069A30D1F19B3046
:10209000D1F1993009F4687F90E0982F8827680F74
:1020A000792F711D072E000C880B990B0E94672455
:1020B00020E030E040E85DE30E94C624CF9108951F
:1020C000809180068A3099F048F48930B1F66EE547
:1020D00070E080E090E00E942304CFCF8B3061F06D
:1020E0008C3059F66EEE72E080E090E0F4CF6CEB4D
:1020F00070E080E090E0EFCF67E771E080E090E093
:10210000EACF6C7FC9CF6E7FC7CFFB010190002063
:10211000E9F73197AF01461B570BDC01ED91FC91BC
:102120000280F381E02D09948F929F92AF92BF922B
:10213000EF92FF920F931F93CF93DF93CDB7DEB74C
:10214000A1970FB6F894DEBF0FBECDBF7C01FA0198
:10215000CB0119A2223008F42AE08E010F5D1F4F37
:10216000822E912CB12CA12CBF01A50194010E94BB
:10217000D125F901CA016A300CF5605DD8016E9372
:102180008D01232B242B252B79F790E080E01097ED
:1021900021F0BD01C7010E948510A1960FB6F894E9
:1021A000DEBF0FBECDBFDF91CF911F910F91FF908A
:1021B000EF90BF90AF909F908F900895695CDECFB5
:1021C000CF93DF93BC018DE595E00E948510EC0173
:1021D00067E771E08DE595E00E9485108C0F9D1FEB
:1021E000DF91CF9108952F923F924F925F926F921D
:1021F0007F928F929F92AF92BF92CF92DF92EF9297
:10220000FF921F93CF93DF93EC016A017B01722E43
:10221000AB019601CB01B6010E945C276AE771E031
:10222000811126C046015701E894B7F82FEF3FEF20
:102230004FE75FE7C501B4010E945C2781110CC024
:102240002FEF3FEF4FE75FE7C501B4010E94602425
:102250006EE771E0181664F02FEF3FEF4FE75FE491
:10226000C701B6010E9407271816B4F462E871E0AE
:10227000CE01DF91CF911F91FF90EF90DF90CF9033
:10228000BF90AF909F908F907F906F905F904F9096
:102290003F902F900C9485102FEF3FEF4FE75FECAE
:1022A000C701B6010E94602487FDE0CF20E030E046
:1022B000A901C701B6010E946024312C212C87FF9F
:1022C00009C06DE2CE010E9461041C01F7FAF0948E
:1022D000F7F8F09410E060E070E080E09FE37116A2
:1022E00041F020E030E040E251E40E9466261F5FAA
:1022F000F6CFA70196010E94FA252B013C010E940E
:10230000D8264B015C012AE0BC01A401CE010E9449
:1023100094107C01E20CF31C1123C1F1C501B4013E
:102320000E9465249B01AC01C301B2010E94F92502
:102330004B015C016EE2CE010E946104E80EF91EC1
:10234000115020F120E030E040E251E4C501B40139
:102350000E94C6242B013C010E94D8264B01B12CBF
:10236000A12C2AE0B501A401CE010E949410E80E30
:10237000F91EC501B4010E9465249B01AC01C30193
:10238000B2010E94F9254B015C01DACFC701DF9150
:10239000CF911F91FF90EF90DF90CF90BF90AF90C3
:1023A0009F908F907F906F905F904F903F902F9075
:1023B000089522E00C94F310CF93DF93AB01BC019E
:1023C00022E08DE595E00E94F310EC0167E771E0F3
:1023D0008DE595E00E9485108C0F9D1FDF91CF91B8
:1023E00008950C94851080EC96E00E94630D60E0E7
:1023F00080EC96E00E941F0D66E871E080EC96E0AC
:102400000C94F11180EC96E00E94630D60E080EC8A
:1024100096E00E941F0D61E971E080EC96E00C945B
:10242000F111CF92DF92EF92FF921F93CF93DF9340
:10243000EC01162F0E9455046B017C012296CE01FF
:102440000E94630D60E0CE010E941F0D8091310259
:1024500090913202A0913302B0913402C81AD90A85
:10246000EA0AFB0A87E9C816D104E104F10484F002
:102470000E945504609331027093320280933302BC
:10248000909334028091300291E08927809330024A
:10249000809130028823A1F0412F50E070E060E08D
:1024A0002AE0CE010E9494106EE971E0CE01DF9126
:1024B000CF911F91FF90EF90DF90CF900C94F1118E
:1024C0006CE971E0CE010E94F111EECF8F929F92E4
:1024D000AF92BF92CF92DF92EF92FF920F931F9332
:1024E000CF93DF936A017B015901EC012296CE0163
:1024F0000E94630D60E0CE010E941F0DB501A8018E
:10250000CE010E94D91163EA71E0CE010E94F1115F
:1025100061E0CE010E941F0DB701A601CE010E940D
:10252000D9116FEDCE010E94610469EA71E0CE011C
:10253000DF91CF911F910F91FF90EF90DF90CF909F
:10254000BF90AF909F908F900C94F1118F929F92BB
:10255000AF92BF92CF92DF92EF92FF920F931F93B1
:10256000CF93DF936A017B015901EC012296CE01E2
:102570000E94630D60E0CE010E941F0DB501A8010D
:10258000CE010E94D9116EE871E0CE010E94F111D6
:1025900061E0CE010E941F0DB701A601CE010E948D
:1025A000D9116FEDCE010E94610469EA71E0CE019C
:1025B000DF91CF911F910F91FF90EF90DF90CF901F
:1025C000BF90AF909F908F900C94F111CF93DF93B9
:1025D000EC012296CE010E94630D60E0CE010E94C4
:1025E0001F0D6BEA71E0CE01DF91CF910C94F111D8
:1025F0008EEB96E00E94E61264EF71E080E090E0DE
:102600000C942304CF93DF93EC012296CE010E9419
:10261000630D60E0CE010E941F0D67EB71E0CE01FB
:10262000DF91CF910C94F111CF93DF93EC012296BF
:10263000CE010E94630D60E0CE010E941F0D66EC8A
:1026400071E0CE01DF91CF910C94F111CF93DF9324
:10265000EC01229620E042E060E1CE010E94F60DFE
:10266000CE010E94630D60E0CE010E941F0D61ED5E
:1026700071E0CE010E94F11161E0CE010E941F0DB8
:102680006DED71E0CE01DF91CF910C94F11185EDEC
:102690008093BC008091290590912A05A0912B057B
:1026A000B0912C050796A11DB11D23E0B695A79505
:1026B000979587952A95D1F72091BC0024FD03C0FA
:1026C0001092270508954091290550912A0560919F
:1026D0002B0570912C05452B462B472B69F3009752
:1026E000A105B10541F025E32A95F1F70000019716
:1026F000A109B109E1CF809128050C94A8020E949C
:10270000782A0F931F93CF93DF93EC0188819981EF
:10271000009759F02A813B812617370730F081E076
:10272000DF91CF911F910F9108958B016F5F7F4FC4
:102730000E94BB29009759F0998388831B830A83E1
:102740002C813D81232B59F7FC011082E8CF80E0DA
:10275000E7CFCF93DF93EC0188819981009711F047
:102760000E943229198218821D821C821B821A82C1
:10277000DF91CF910895CF92DF92EF92FF920F9366
:102780001F93CF93DF93CDB7DEB7A1970FB6F89421
:10279000DEBF0FBECDBF7C01CB01BA01F7011182B4
:1027A000108213821282158214828E010F5F1F4FD6
:1027B00023E045E00E940B226C01009771F0FC01C0
:1027C00001900020E9F731978F01081B190BB80120
:1027D000C7010E948113811112C0C7010E94A91371
:1027E000A1960FB6F894DEBF0FBECDBFDF91CF919B
:1027F0001F910F91FF90EF90DF90CF900895F70118
:1028000015830483B601808191810E94862AE8CFD6
:10281000FC0180819181009711F00C943229089578
:102820004F925F926F927F928F929F92AF92BF92E0
:10283000EF92FF921F93CF93DF9300D000D000D090
:10284000CDB7DEB77C012A013B01122F0E9455044F
:102850004B015C0182E0E80EF11CC7010E94630D90
:1028600060E0C7010E941F0D8091360290913702EF
:10287000A0913802B0913902881A990AAA0ABB0AB3
:10288000E7E98E169104A104B10484F00E94550476
:102890006093360270933702809338029093390226
:1028A0008091350291E0892780933502B301A2011E
:1028B000CE0101960E94BB1380913502882319F145
:1028C000BE016F5F7F4FC7010E94680463EA71E039
:1028D000C7010E94F111CE0101960E9408142696AC
:1028E0000FB6F894DEBF0FBECDBFDF91CF911F9121
:1028F000FF90EF90BF90AF909F908F907F906F90E0
:102900005F904F90089511111F5F8D819E818630D9
:10291000910508F01F5F212F30E02817390730F4A8
:1029200089819A81280F391F892B21F410927F0405
:102930002FE734E080E2F9018083C2CFCF92DF92AB
:10294000EF92FF920F931F93CF93DF93EB017B01E5
:1029500024E0E20EF11C8B016C01C61AD70AC601F5
:10296000800F911F0E948425F80181938F01EE153D
:10297000FF05A9F7CE01DF91CF911F910F91FF9035
:10298000EF90DF90CF900895EF92FF920F931F93F7
:10299000CF93DF93CDB7DEB728970FB6F894DEBF9D
:1029A0000FBECDBF7C01062F10E0BE016B5F7F4FD5
:1029B000C801880F991F880F991F0E949E140F5FEE
:1029C0001F4F000F111F000F111FBE016F5F7F4FC0
:1029D000C8010E949E1489819A81AB81BC814D817E
:1029E0005E816F817885F7014083518362837383B1
:1029F00084839583A683B783BE016B5F7F4FC80135
:102A000004960E949E14BE016F5F7F4FC801089616
:102A10000E949E1489819A81AB81BC814D815E8127
:102A20006F817885F7014087518762877387848734
:102A30009587A687B78728960FB6F894DEBF0FBE96
:102A4000CDBFDF91CF911F910F91FF90EF9008952F
:102A50009F92AF92BF92CF92DF92EF92FF920F932D
:102A60001F93CF93DF935C017B018B01D0E0C0E02B
:102A7000F80191908F016501CC0EDD1EC6010E9408
:102A80008425981621F0692DC6010E948C25219677
:102A9000C430D10569F7C701DF91CF911F910F9124
:102AA000FF90EF90DF90CF90BF90AF909F900895F0
:102AB0001F920F920FB60F9211242F933F934F93B3
:102AC0005F936F937F938F939F93AF93BF93EF9396
:102AD000FF938091B900887F803609F44AC0F0F5F1
:102AE000883209F4A7C018F5803109F49BC0B8F406
:102AF000882309F4F9C0883009F494C0FF91EF915C
:102B0000BF91AF919F918F917F916F915F914F9105
:102B10003F912F910F900FBE0F901F901895883105
:102B200009F488C0803251F78093250514C08034A1
:102B300009F49DC040F48033B9F38833F9F68093EB
:102B4000250585ECB0C0803509F485C0883509F4C9
:102B500096C0883499F60E944713D0CF883909F47B
:102B60008CC038F5883729F050F4883611F080375A
:102B700029F683E0809327051092000557C0883816
:102B800009F47BC0803919F0803809F0B7CF809103
:102B90000005803208F071C0E091000581E08E0FE1
:102BA000809300058091BB00F0E0E052FB4F8083F2
:102BB0003DC0803B39F0E0F4803A09F479C0883AAE
:102BC00009F09CCF84E0809327051092DD041092D9
:102BD000DC04E091DA04F091DB0409958091DC04D7
:102BE00081110FC081E08093DC041092BA0409C007
:102BF000803C09F4A6CF883C09F4A3CF883B09F0B8
:102C00007DCFE091DD0481E08E0F8093DD04F0E064
:102C1000E654FB4F80818093BB009091DD0480914E
:102C2000DC0429C0809102058093BB0085EC809371
:102C3000BC0064CF9091240580912305981758F526
:102C4000E091240581E08E0F80932405F0E0ED5F94
:102C5000FA4F8081E9CFE091240581E08E0F8093C7
:102C600024058091BB00F0E0ED5FFA4F80839091E6
:102C70002405809123059817C8F285E8D8CFE09104
:102C8000240581E08E0F809324058091BB00F0E045
:102C9000ED5FFA4F80838091260581115CCF81E042
:102CA0008093010584EA8093BC001092270526CF0B
:102CB00085EC8093BC00109227058091000580323E
:102CC00030F4E0910005F0E0E052FB4F108260919B
:102CD000000570E0E091DE04F091DF0480EE94E006
:102CE0000995109200050ACF1092250534CF1F9246
:102CF0000F920FB60F9211242F933F938F939F93B0
:102D0000AF93BF9380918F0490919004A091910410
:102D1000B091920430918E0423E0230F2D3758F5A3
:102D20000196A11DB11D20938E0480938F04909372
:102D30009004A0939104B093920480919304909195
:102D40009404A0919504B09196040196A11DB11D23
:102D50008093930490939404A0939504B093960465
:102D6000BF91AF919F918F913F912F910F900FBE87
:102D70000F901F90189526E8230F0296A11DB11DF4
:102D8000D2CF1F920F920FB60F9211242F933F9321
:102D90004F935F936F937F938F939F93AF93BF9363
:102DA000EF93FF938DE595E00E94F404FF91EF917E
:102DB000BF91AF919F918F917F916F915F914F9153
:102DC0003F912F910F900FBE0F901F9018951F925B
:102DD0000F920FB60F9211242F938F939F93EF931F
:102DE000FF93E0916D05F0916E058081E091730590
:102DF000F091740582FD1BC09081809176058F5FF4
:102E00008F7320917705821741F0E0917605F0E00D
:102E1000E35AFA4F958F80937605FF91EF919F913A
:102E20008F912F910F900FBE0F901F90189580815A
:102E3000F4CF1F920F920FB60F9211242F933F934E
:102E40004F935F936F937F938F939F93AF93BF93B2
:102E5000EF93FF9383E00E943302892B19F481E002
:102E60008093890482E00E943302892B19F481E067
:102E700080938A0485E00E943302892B19F481E053
:102E800080938B0484E00E943302892B19F481E043
:102E900080938C0486E00E943302892B19F481E030
:102EA00080938D04FF91EF91BF91AF919F918F918E
:102EB0007F916F915F914F913F912F910F900FBE36
:102EC0000F901F90189580917B068F3351F018F466
:102ED0008F3149F008958F3541F08F37D9F78CE065
:102EE00008958AE0089589E008958BE00895CF93CE
:102EF000DF93EC0160E087E00E94C902E1E5F2E0C7
:102F0000E491E883EDE3F2E0E491F0E0EE0FFF1FDF
:102F1000E45DFD4F859194919A8389831B861D867C
:102F20001C861A86198618861F821E821D821C82A4
:102F30001B82DF91CF910895CF93DF93EC0119822B
:102F400018821B821A821D821C8268E070E00E9437
:102F50008113811105C0CE01DF91CF910C94A9138B
:102F600088E090E09D838C836BEE71E0888199818D
:102F7000DF91CF910C94862ABF92CF92DF92EF928D
:102F8000FF920F931F93CF93DF93109254051092EB
:102F9000530588EE93E0A0E0B0E080935505909350
:102FA0005605A0935705B093580523E231E03093BE
:102FB0005205209351051092600510925F05809391
:102FC000610590936205A0936305B093640585E362
:102FD00091E090935E0580935D0585EC90E0909381
:102FE0006A058093690584EC90E090936C0580936A
:102FF0006B0580EC90E090936E0580936D0581ECFD
:1030000090E09093700580936F0582EC90E0909330
:1030100072058093710586EC90E09093740580931F
:10302000730510927605109277051092780510922C
:10303000790580E58093FA051092FB051092010650
:1030400010920206109205061092070682E090E0A8
:10305000A0E0B0E08093080690930906A0930A06CA
:10306000B0930B0610921F061092290610922806A4
:1030700087E491E0909327068093260610922B0612
:1030800088EB96E00E949C178CE896E00E947717E8
:103090008EE596E00E94771710928A0610928B06B2
:1030A0008CEC0E941C0F882331F040E064EB8EE52D
:1030B00096E00E94B00E8EE596E00E945D0E809331
:1030C0006D06C12CD12C7601C39411E0D0918B06F2
:1030D000D11165C180EF0E941C0F882309F45FC1E4
:1030E000B12CC0E08EE596E00E945D0E082F8EE5C3
:1030F00096E00E945D0E002309F4A6C0882309F41F
:10310000A3C010928A0687E691E09093BF06809351
:10311000BE061092C3061092C20683E591E090931A
:10312000C1068093C0061092D0068FEF8093CF0621
:103130001092CE061092D10687E28093CB061092B1
:10314000CC061092CD061092CA061092C90684E0F1
:103150008093D20682E08093D30681E08093D406E8
:1031600080E18093D50680E28093D60680E4809348
:10317000D70680E88093D80650E040E063E080EC1A
:1031800096E00E94F80C1092550610925606109286
:103190005706109258061092590610925A0610922D
:1031A0005B0610925C0610925D06C12CD12C80E863
:1031B000E82E8FE3F82EC0924D06D0924E06E09294
:1031C0004F06F0925006109251061092520610923D
:1031D00053061092540670E060E08DE496E00E9481
:1031E000900FC0924506D0924606E0924706F092B4
:1031F00048061092490610924A0610924B06109209
:103200004C0670E060E085E496E00E94900F82EB4F
:1032100096E00E949C178CEA96E00E949C1786EA32
:1032200096E00E949C1780EA96E00E949C178AE92B
:1032300096E0DF91CF911F910F91FF90EF90DF907B
:10324000CF90BF900C949C17EC2FE695E695E695F1
:10325000F0E03C2F3770E25AF94F24A101118DC0E4
:10326000811190C080918A068C1709F488C08C1750
:1032700008F487C0822F90E0032E02C095958795B1
:103280000A94E2F7482F417080FF7BC0D701C60146
:1032900004C0880F991FAA1FBB1F3A95D2F7822B33
:1032A00084A3042F602F8EE596E00E94810ECF5FED
:1032B000C03409F017CFB0928A06B11002C0109343
:1032C0008B0680EF0E941C0F882309F41CCF8EE52B
:1032D00096E00E945D0EC82F8EE596E00E945D0E7E
:1032E000CC2311F081110FCFED2FE695E695E695F1
:1032F000F0E0EE57F94F608170E08D2F877002C0CB
:10330000759567958A95E2F761708EE596E00E9463
:10331000810EDF5FD034D9F688E0E2E8F6E0AFE670
:10332000B6E001900D928A95E1F70E94E90F88239B
:1033300009F4E9CE0E9463178093800685E50E9418
:103340001C0F882331F040E064EB8EE596E00E948C
:10335000B00E8EE596E00E945D0E809381060E947D
:10336000631790916C06981710F480936C06809107
:103370006E068F5F80936E06A9CE402F87CF41E007
:1033800085CFBC2ED701C60104C0880F991FAA1F84
:10339000BB1F3A95D2F78095822384A383CF1092E6
:1033A0008A0610928B06AFCECF93DF93CDB7DEB7F0
:1033B000A0970FB6F894DEBF0FBECDBF789484B54A
:1033C000826084BD84B5816084BD85B5826085BD21
:1033D00085B5816085BD80916E00816080936E00AF
:1033E00010928100809181008260809381008091A1
:1033F0008100816080938100809180008160809352
:1034000080008091B10084608093B1008091B00011
:1034100081608093B00080917A00846080937A000C
:1034200080917A00826080937A0080917A00816036
:1034300080937A0080917A00806880937A0010925D
:10344000C10061E08BE00E94C90260E08BE00E9455
:103450005C0261E08CE00E94C90260E08CE00E94A6
:103460005C0261E089E00E94C90261E089E00E949B
:103470005C0261E088E00E94C90260E088E00E948E
:103480005C02E0916D05F0916E0582E08083E09131
:103490006905F0916A051082E0916B05F0916C0569
:1034A0008FEC808310927505E0917105F0917205A3
:1034B00086E08083E0916F05F091700580818061E6
:1034C0008083E0916F05F091700580818860808332
:1034D000E0916F05F0917005808180688083E091B4
:1034E0006F05F091700580818F7D80838EEB96E073
:1034F0000E94261368EE73E080E090E00E942304AF
:1035000010929706109299061092980610929606BD
:1035100010929506109294061092930610929206BD
:10352000109291061092900610928F06CC24C394AC
:1035300080919906811106C08CE896E00E94E40E05
:10354000811151C110929706109299061092980617
:1035500019821A821B821C821D821E821F8218867B
:1035600019861A861B861C861D861E861F86188A4B
:1035700060E0CE0101960E94C41484EF91E00E94A5
:10358000E01061E072E08DE595E00E94F1114D815F
:103590005E816F8178858DE595E00E94D9116BE0A1
:1035A00072E08DE595E00E94F11149815A816B81AD
:1035B0007C818DE595E00E94D91162E172E08DE594
:1035C00095E00E94F1114D855E856F8578898DE5C6
:1035D00095E00E94D91169E172E08DE595E00E94C5
:1035E000F11169857A858B859C850E94DC11BE016D
:1035F0006F5F7F4F8DE496E00E94900F64E0CE01F4
:1036000001960E94C41460E272E08DE595E00E948C
:10361000F1114D815E816F8178858DE595E00E9485
:10362000D9116BE072E08DE595E00E94F1114981BE
:103630005A816B817C818DE595E00E94D91162E110
:1036400072E08DE595E00E94F1114D855E856F85F4
:1036500078898DE595E00E94D91169E172E08DE5E8
:1036600095E00E94F11169857A858B859C850E9481
:10367000DC11BE016F5F7F4F85E496E00E94900FE2
:103680001092890410928A0410928B0410928C0478
:103690001092890462E083E00E94C90262E082E045
:1036A0000E94C90262E085E00E94C90262E084E0F3
:1036B0000E94C90262E086E00E94C90262E081E1E4
:1036C0000E94C902809168008460809368008091A4
:1036D0006D008C6780936D0081E090E0909388048A
:1036E00080938704BE016F5E7F4F80E290E00E946E
:1036F0009E1489899A89AB89BC89809355069093D9
:103700005606A0935706B0935806BE016F5E7F4FD2
:1037100084E290E00E949E1489899A89AB89BC89D1
:103720008093590690935A06A0935B06B0935C066B
:1037300052E0252E312CF0908D04D0908C04E09036
:103740008B04C0908A04B09089040E945504AB0198
:10375000BC0180914A0490914B04A0914C04B0911B
:103760004D0488539F4FAF4FBF4F84179507A6074F
:10377000B7070CF0E0C0BB2009F4ADC089EE91E0C2
:103780000E94E01042E0C42ED12C109289041092C5
:103790008A0410928B0410928C0410928D0464E6BB
:1037A00070E080E090E00E94230481E10E943302F7
:1037B000892B09F0C3C091E090935D06E0918704E6
:1037C000F09188043197E830F10508F083C1E551A4
:1037D000F44E0C94F325A11C9D1D7A1EFF1EE61FBE
:1037E000D7208921BF2140E060EF8CE896E00E945D
:1037F000B00E01E0E12CD12C11E08CE896E00E94A3
:103800005D0EF82E8CE896E00E945D0E91E0F912B4
:103810002BC0813009F047C0113408F493CED09208
:103820009706D11002C0C092990680918F06882316
:1038300009F488CEAFE8B6E0E2E4F4E08D9181933C
:1038400084E0EA34F807D1F780914204883209F025
:103850006FCE67E082E494E00E94460E90914904A6
:10386000891709F465CE74CEEE2DF0E0F81211C080
:10387000809197061817A8F4DF01A457B94F139643
:103880008C91802381F4F12C193010F41093980658
:10389000D12EE457F94F8381902F9095892383830C
:1038A0000BC08113F0CFEE2DF0E0E457F94F838188
:1038B000802B8383FF24F3946F2D8CE896E00E9485
:1038C000810E1F5F000F11F4E39401E0A7E0AE1535
:1038D00008F093CFA1CFCC2041F08AE292E00E9481
:1038E000E01033E0C32ED12C50CFDD2041F08BED22
:1038F00091E00E94E01025E0C22ED12C46CFEE20B0
:1039000041F08CE292E00E94E01094E0C92ED12CAC
:103910003CCFFF2041F08AE991E00E94E010CC24E6
:10392000C394D12C32CF40934A0450934B046093FC
:103930004C0470934D04D12CC12C37CF10925D06EE
:103940003DCF0E9423102B013C0161E089E00E94E1
:103950005C0260E088E00E945C0262E370E080E06C
:1039600090E00E9423048FE00E940503BC0190E0D8
:1039700080E00E94652420914D0630914E064091D2
:103980004F06509150060E94C62420915106309156
:10399000520640915306509154060E94FA254B015D
:1039A0005C01B301A2018DE595E00E94D9116EE2A0
:1039B00072E08DE595E00E94F111C501B4010E940D
:1039C000DC1195018401B301A2018EEB96E00E9407
:1039D000A61260E089E00E945C0261E088E00E943B
:1039E0005C0262E370E080E090E00E94230480E1EA
:1039F0000E94050320915D06211157C0BC0190E093
:103A000080E00E9465242091450630914606409151
:103A10004706509148060E94C624209149063091DD
:103A20004A0640914B0650914C060E94FA259B0194
:103A3000AC016091590670915A0680915B06909195
:103A40005C060E94072718166CF40E94021261E0BF
:103A50008CE00E945C0288E090E090938804809360
:103A6000870438C02091550630915606409157067C
:103A700050915806C501B4010E94602487FF15C00B
:103A800061E089E00E945C0260E088E00E945C02E4
:103A90000E94F31161E08BE00E945C02A7E0B0E0BD
:103AA000B0938804A093870415C0B3E0CB16D1046B
:103AB00099F13CF4F2E0CF16D104C9F081E090E036
:103AC000CCCF84E0C816D10409F4E2C095E0C91651
:103AD000D104A1F780E090E0892B09F42CCE0E945C
:103AE000E004882309F424CE0E94000021CE61E086
:103AF00089E00E945C0260E088E00E945C028EEB3C
:103B000096E00E94141364EF71E080E090E00E9460
:103B10002304A3E0B0E0C4CF8EEB96E00E94021332
:103B200064EF71E080E090E00E942304E5E0F0E0C3
:103B3000F0938804E0938704CDCF0E9423102B01DB
:103B40003C0160E089E00E945C0261E088E00E9444
:103B50005C0262E370E080E090E00E94230480E178
:103B60000E940503BC0190E080E00E946524209142
:103B700045063091460640914706509148060E94FE
:103B8000C6242091490630914A0640914B06509137
:103B90004C060E94FA254B015C0161E089E00E941D
:103BA0005C0260E088E00E945C0262E370E080E01A
:103BB00090E00E9423048FE00E9405037C01809125
:103BC0004D0690914E06A0914F06B0915006898FF8
:103BD0009A8FAB8FBC8F8091510690915206A09125
:103BE0005306B09154068D8F9E8FAF8FB8A3B3014B
:103BF000A2018DE595E00E94D9116EE272E08DE59B
:103C000095E00E94F111C501B4010E94DC119501FB
:103C10008401B301A2018EEB96E00E9466128091AE
:103C20005D0681112CC0A501940160915906709127
:103C30005A0680915B0690915C060E940727181631
:103C40000CF403CFB70190E080E00E946524298D39
:103C50003A8D4B8D5C8D0E94C6242D8D3E8D4F8DEF
:103C600058A10E94FA2520915506309156064091A0
:103C70005706509158060E94602487FD01CF93E0BB
:103C8000C916D10451F14CF4B2E0CB16D10481F045
:103C900030928804209287041DCFE4E0CE16D10430
:103CA00009F40CCFF5E0CF16D10409F413CFF0CF0F
:103CB00060E089E00E945C0261E088E00E945C02B2
:103CC0008EEB96E00E94141364EF71E080E090E0C8
:103CD0000E94230484E090E0C0CE8EEB96E00E9428
:103CE000021364EF71E080E090E00E942304A6E0FC
:103CF000B0E0D6CE80915E04811123C010924E04B4
:103D000010924F04109250041092510410925204D9
:103D100010925304109254041092550410925604B9
:103D200010925704109258041092590410925A0499
:103D300010925B0410925C0410925D04B1E0B093A9
:103D40005E040E9423109B01AC01E2E0CE16D10478
:103D500009F447C0F3E0CF16D104D1F181E0C816D1
:103D6000D10409F045C00E94F8126091040170E08E
:103D700090E080E00E946524AB01BC018EE494E0F9
:103D80000E944D0F882309F4A5CE62E574E090E00F
:103D900080E00E9428156EE474E084E090E00E94C8
:103DA00028156AE574E088E090E00E94281566E531
:103DB00074E08CE090E00E9428156EE474E08DE4DD
:103DC00096E00E94900FD0928804C092870482CE21
:103DD00080910401823008F47DCE815080930401EB
:103DE00079CE80910401883108F074CE8F5FF6CFD0
:103DF000609104018EEB96E00E9411126BCE8091CF
:103E00007704811123C01092670410926804109205
:103E1000690410926A0410926B0410926C04109260
:103E20006D0410926E0410926F0410927004109240
:103E30007104109272041092730410927404109220
:103E400075041092760491E0909377040E942310F9
:103E50007B018C01A3E0CA16D10409F462C0C4F44A
:103E6000E1E0CE16D10469F1F2E0CF16D10409F4F5
:103E70007DC040910501509106016091070170914C
:103E80000801209166048EEB96E00E94101422CE69
:103E900084E0C816D10461F095E0C916D10449F751
:103EA00080916604833008F08AC08F5F8093660437
:103EB00080916604882309F485C08150809366044C
:103EC00009CE0E94F81240910501509106016091BF
:103ED00007017091080187E694E00E944D0F882346
:103EE00009F4F8CD6BE674E080E190E00E942815BB
:103EF00067E674E084E190E00E94281563E774E0CF
:103F000088E190E00E9428156FE674E08CE190E073
:103F10000E94281567E674E085E496E00E94900F01
:103F2000B7CE6091660470E090E080E00E94672464
:103F30009B01AC01505860E070E080E291E40E9487
:103F40000C279B01AC0160910501709106018091E5
:103F50000701909108010E94F92560930501709373
:103F600006018093070190930801B4CDC09005012C
:103F7000D0900601E0900701F090080120E030E0C9
:103F800040E852E4C701B6010E94602487FFA2CD39
:103F90006091660470E090E080E00E9467249B01DD
:103FA000AC01505860E070E080E291E40E940C2780
:103FB0009B01AC01C701B6010E94FA25CECF109239
:103FC000660476CFA2E0A093660484CD0E942310FD
:103FD000B3E0CB16D10409F4B9C00CF060C0F1E035
:103FE000CF16D10409F475C082E0C816D10409F4D3
:103FF00096C0709085048090090190900A01A0906D
:104000000B01B0900C010E9455046B017C0180EC07
:1040100096E00E94630D60E080EC96E00E941F0D28
:104020008091810490918204A0918304B0918404D2
:10403000C81AD90AEA0AFB0AE7E9CE16D104E10454
:10404000F10484F00E94550460938104709382040B
:10405000809383049093840480918004F1E08F27FF
:1040600080938004B501A401CE0101960E94BB1388
:1040700080918004882309F47FC0BE016F5F7F4F69
:1040800080EC96E00E9468046EE871E080EC96E0B7
:104090000E94F111CE0101960E9408141BCD94E0FC
:1040A000C916D10469F0A5E0CA16D10409F0A1CF60
:1040B00080918504833008F058C08F5F8093850419
:1040C00080918504882309F453C08150809385042E
:1040D00001CD0E94F8128091090190910A01A091EE
:1040E0000B01B0910C018D8B9E8BAF8BB88FBE01F5
:1040F0006B5E7F4F80E290E00E942815809109015D
:1041000090910A01A0910B01B0910C01809355068A
:1041100090935606A0935706B093580654CE20E0CD
:1041200030E040E85FE36091090170910A018091FD
:104130000B0190910C010E94FA2560930901709384
:104140000A0180930B0190930C01C4CC20E030E075
:1041500040E85FE36091090170910A0180910B01D1
:1041600090910C010E94F925E8CF10928504A8CF08
:10417000B2E0B0938504AECC711073942D813E8172
:104180002630310508F07394872D90E0821793074D
:1041900030F429813A81820F931F232B21F410924E
:1041A0007F048FE794E020E2DC012C9366CF0E942D
:1041B00023107B018C01B3E0CB16D10409F454C069
:1041C000A4F4F1E0CF16D10449F182E0C816D1047D
:1041D00009F46FC040910D0150910E0160910F01E3
:1041E00070911001209186044ECE94E0C916D1043E
:1041F00061F0A5E0CA16D10469F780918604833086
:1042000008F080C08F5F80938604809186048823A5
:1042100009F47BC08150809386045CCC0E94F81224
:1042200080910D0190910E01A0910F01B0911001AC
:10423000898B9A8BAB8BBC8BBE016F5E7F4F84E208
:1042400090E00E94281580910D0190910E01A0919F
:104250000F01B09110018093590690935A06A093D4
:104260005B06B0935C0614CD6091860470E090E02C
:1042700080E00E9467249B01AC01505860E070E030
:1042800080E291E40E940C279B01AC0160910D013A
:1042900070910E0180910F01909110010E94F925FB
:1042A00060930D0170930E0180930F0190931001A4
:1042B00011CCC0900D01D0900E01E0900F01F09054
:1042C000100120E030E040E852E4C701B6010E944E
:1042D000602487FFFFCB6091860470E090E080E06F
:1042E0000E9467249B01AC01505860E070E080E2BE
:1042F00091E40E940C279B01AC01C701B6010E940A
:10430000FA25CECF1092860480CFB2E0B093860417
:10431000E1CB8FE00E94050320915D06211128C0AA
:10432000BC0190E080E00E94652420914D06309110
:104330004E0640914F06509150060E94C62420918F
:1043400051063091520640915306509154060E94F6
:10435000FA259B01AC01609155067091560680913B
:104360005706909158060E94072718160CF4B2CBF6
:1043700060E08BE00E945C02E1E0F0E0D9CB80E1FC
:104380000E94050320915D06211128C0BC0190E028
:1043900080E00E94652420914506309146064091B8
:1043A0004706509148060E94C62420914906309144
:1043B0004A0640914B0650914C060E94FA259B01FB
:1043C000AC016091590670915A0680915B069091FC
:1043D0005C060E94072718160CF47CCB60E08CE08A
:1043E0000E945C0255CC8AE996E00E94081480EA9B
:1043F00096E00E94081486EA96E00E9408148CEA6F
:1044000096E00E94081482EB96E00E94081488EB64
:1044100096E00C940814EF920F931F93CF93DF93C1
:10442000E80134E047FD34E1042E000C550B57FF42
:1044300003C0519541955109E32E022F242FAE015F
:104440000E942922CE01DF91CF911F910F91EF9011
:104450000895A9E0B0E0EFE2F2E20C94A0256A0131
:10446000F22EB02E102FFBE3AF2EA01608F41BE3A4
:104470001F5F012F27E0AE014F5F5F4F0E9488232F
:10448000BC018981982F9970913009F43FC09BE25B
:10449000E1FC04C09E2D9170E0FC3AC05E2D50718D
:1044A000E82FE87083FF46C084E0911101C083E0EB
:1044B000EF2DE81B8F1508F0E0E0D6018E2F20E2EB
:1044C000552351F1992329F0D6019C93C6010196F9
:1044D0006C0196012D5F3F4FE2FE24C08EE4D601B1
:1044E0008C9391E411969C93119712968C93D90119
:1044F0008E2F90E281111BC0E20FF32FF11D10826D
:104500008EEF9FEF2996ECE00C94BC259DE2C6CF80
:1045100090E2C4CF2D9381508111FCCFCE0ED11CDF
:10452000E0E0D0CF8EE6D6018C9391E6DBCF9D9371
:104530008150E0CF482F447082FF3DC084E091114C
:1045400001C083E08F1510F4EF2DE81BD6018E2FEC
:1045500020E2552309F1992329F0D6019C93C60145
:1045600001966C0196012D5F3F4FE2FE1BC089E46E
:10457000D6018C938EE411968C93119786E4129653
:104580008C93D9018E2F90E2882309F4B5CF9D93A7
:104590008150FACF2D9381508111FCCFCE0ED11CCA
:1045A000E0E0D9CF89E6D6018C938EE611968C9304
:1045B000119786E6E4CF9B0177FF02C030E020E050
:1045C000A1E0B0E0911102C0B0E0A0E0F9013196A5
:1045D000AE0FBF1F8B2C912CBB2009F461C054017E
:1045E000EFEFAE1ABE0AAA0DBB1DFA161B0619F094
:1045F00014F04F2D4A1B511188C0E3FC59C07601BD
:10460000A42FB0E2A1114FC0C40ED11C992309F40C
:104610005BC040E0D6011196F60190836D015523F1
:1046200009F448C0012F060F9A81582F507184FF5A
:1046300003C0913309F4015010160CF047C0093043
:1046400008F008E0EEE2FE2E5B01A01AB108850139
:104650009194819491082F3F320729F4D601FC925E
:10466000F60131966F016217730794F10217130771
:104670007CF5DB01A21BB30BAA24A394B12CAC0ED6
:10468000BD1EAA0DBB1D11968C9121503109D6017A
:10469000119628153905F4F0F60180836D01DBCF02
:1046A000B12CA12CA0CFF701B1937F01A150AACFCB
:1046B0009111B0CFD601942F50E302C05D93915079
:1046C0009111FCCFC40ED11C40E0ACCF01E0BACFB9
:1046D00080E3DBCF6217730731F4963388F49533A8
:1046E00011F4552369F0F6018083FD01842F90E2D7
:1046F000811108C0A40FB11D1C9290E080E002CF90
:1047000081E3F1CF91938150F3CF911183CF8ACF81
:10471000283008F027E03327DA01990F311D87FD93
:10472000916000966105710539F432602E5F3D930A
:1047300030E32A95E1F708959F3F30F08038710506
:10474000610509F03C5F3C5F3D93913008F0806863
:10475000911DDF93CF931F930F93FF92EF92192F29
:10476000987F9695E92F96959695E90FFF27EC5B34
:10477000FE4F99273327EE24FF24A701E701059078
:104780000894079428F4360FE71EF81E491F511DA0
:10479000660F771F881F991F0694A1F7059007944D
:1047A00028F4E70EF81E491F561FC11D770F881FFA
:1047B000991F661F0694A1F70590079428F4F80E38
:1047C000491F561FC71FD11D880F991F661F771FCE
:1047D0000694A1F70590079420F4490F561FC71FB0
:1047E000D81F990F661F771F881F0694A9F7849119
:1047F0001095177041F0D695C79557954795F79442
:10480000E7941A95C1F7EAEEF0E0689415901591D7
:1048100035916591959105907FE27395E118F10AC4
:10482000430B560BC90BD009C0F7E10CF11E431F17
:10483000561FC91FD01D7EF4703311F48A95E6CF40
:10484000E894015030F0080F0AF40027021708F42A
:10485000202F2395022F7A3328F079E37D932A9530
:10486000E9F710C07D932A9589F606949795679588
:10487000379517951794E118F10A430B560BC90B9E
:10488000D00998F023957E9173957A3308F070E300
:104890007C932013B8F77E9170617D9330F08395FF
:1048A00071E37D9370E32A95E1F71124EF90FF9077
:1048B0000F911F91CF91DF91992787FD90950895D2
:1048C0000E94A22408F481E00895E89409C097FBAF
:1048D0003EF490958095709561957F4F8F4F9F4FD7
:1048E0009923A9F0F92F96E9BB279395F69587951B
:1048F00077956795B795F111F8CFFAF4BB0F11F4DE
:1049000060FF1BC06F5F7F4F8F4F9F4F16C0882384
:1049100011F096E911C0772321F09EE8872F762FBA
:1049200005C0662371F096E8862F70E060E02AF0FB
:104930009A95660F771F881FDAF7880F96958795E7
:1049400097F90895990F0008550FAA0BE0E8FEEFBC
:1049500016161706E807F907C0F012161306E40743
:10496000F50798F0621B730B840B950B39F40A263C
:1049700061F0232B242B252B21F408950A2609F41A
:10498000A140A6958FEF811D811D08950E94D92415
:104990000C944A250E943C2538F00E94432520F0C3
:1049A000952311F00C9433250C94392511240C9483
:1049B0007E250E945B2570F3959FC1F3950F50E013
:1049C000551F629FF001729FBB27F00DB11D639FC1
:1049D000AA27F00DB11DAA1F649F6627B00DA11D67
:1049E000661F829F2227B00DA11D621F739FB00D0D
:1049F000A11D621F839FA00D611D221F749F33277D
:104A0000A00D611D231F849F600D211D822F762F15
:104A10006A2F11249F5750409AF0F1F088234AF0F2
:104A2000EE0FFF1FBB1F661F771F881F915050405E
:104A3000A9F79E3F510580F00C9433250C947E25F8
:104A40005F3FE4F3983ED4F3869577956795B795E5
:104A5000F795E7959F5FC1F7FE2B880F911D9695FF
:104A6000879597F9089597F99F6780E870E060E06F
:104A700008959FEF80EC089500240A9416161706F7
:104A800018060906089500240A941216130614063F
:104A900005060895092E0394000C11F4882352F0A2
:104AA000BB0F40F4BF2B11F460FF04C06F5F7F4F5A
:104AB0008F4F9F4F089557FD9058440F551F59F041
:104AC0005F3F71F04795880F97FB991F61F09F3FFB
:104AD00079F087950895121613061406551FF2CF24
:104AE0004695F1DF08C0161617061806991FF1CF74
:104AF00086957105610508940895E894BB2766279B
:104B00007727CB0197F90895F999FECF92BD81BD22
:104B1000F89A992780B50895262FF999FECF1FBAE4
:104B200092BD81BD20BD0FB6F894FA9AF99A0FBED6
:104B3000019608952F923F924F925F926F927F92CB
:104B40008F929F92AF92BF92CF92DF92EF92FF929D
:104B50000F931F93CF93DF93CDB7DEB7CA1BDB0B49
:104B60000FB6F894DEBF0FBECDBF09942A883988EE
:104B700048885F846E847D848C849B84AA84B984F5
:104B8000C884DF80EE80FD800C811B81AA81B98101
:104B9000CE0FD11D0FB6F894DEBF0FBECDBFED0115
:104BA0000895A1E21A2EAA1BBB1BFD010DC0AA1F6E
:104BB000BB1FEE1FFF1FA217B307E407F50720F086
:104BC000A21BB30BE40BF50B661F771F881F991F01
:104BD0001A9469F760957095809590959B01AC014A
:104BE000BD01CF010895EE0FFF1F0590F491E02D58
:104BF00009945058BB27AA270E9411260C944A25D5
:104C00000E943C2538F00E94432520F039F49F3F54
:104C100019F426F40C9439250EF4E095E7FB0C9476
:104C20003325E92F0E945B2558F3BA1762077307F3
:104C30008407950720F079F4A6F50C947D250EF4F1
:104C4000E0950B2EBA2FA02D0B01B90190010C019C
:104C5000CA01A0011124FF27591B99F0593F50F4B4
:104C6000503E68F11A16F040A22F232F342F44270C
:104C7000585FF3CF469537952795A795F040539504
:104C8000C9F77EF41F16BA0B620B730B840BBAF0D4
:104C90009150A1F0FF0FBB1F661F771F881FC2F73F
:104CA0000EC0BA0F621F731F841F48F48795779553
:104CB0006795B795F7959E3F08F0B0CF9395880F0D
:104CC00008F09927EE0F9795879508950E947A2608
:104CD0000C944A250E94432558F00E943C2540F040
:104CE00029F45F3F29F00C94332551110C947E2553
:104CF0000C9439250E945B2568F39923B1F3552361
:104D000091F3951B550BBB27AA27621773078407DE
:104D100038F09F5F5F4F220F331F441FAA1FA9F374
:104D200035D00E2E3AF0E0E832D091505040E69562
:104D3000001CCAF72BD0FE2F29D0660F771F881FC3
:104D4000BB1F261737074807AB07B0E809F0BB0BB6
:104D5000802DBF01FF2793585F4F3AF09E3F5105CA
:104D600078F00C9433250C947E255F3FE4F3983E55
:104D7000D4F3869577956795B795F7959F5FC9F7B3
:104D8000880F911D9695879597F90895E1E0660F34
:104D9000771F881FBB1F621773078407BA0720F0AD
:104DA000621B730B840BBA0BEE1F88F7E095089516
:104DB0000E94632588F09F5798F0B92F9927B75123
:104DC000B0F0E1F0660F771F881F991F1AF0BA95AF
:104DD000C9F714C0B13091F00E947D25B1E008956B
:104DE0000C947D25672F782F8827B85F39F0B93F5D
:104DF000CCF3869577956795B395D9F73EF4909562
:104E00008095709561957F4F8F4F9F4F08950E94B9
:104E1000A22408F48FEF0895FA01EE0FFF1F3096D9
:104E200021053105A1F16115710561F48038BFE3F9
:104E30009B0749F168949038810561F08038BFEF95
:104E40009B0741F099234AF5FF3FE1053105210514
:104E500019F1E8940894E795D901AA2329F4AB2F16
:104E6000BE2FF85FD0F310C0FF5F70F4A695E0F797
:104E7000F73950F019F0FF3A38F49F779F930DD02F
:104E80000F9007FC9058089546F00C94392560E087
:104E900070E080E89FE308954FE79F775F934F931B
:104EA0003F932F930E940C282F913F914F915F9138
:104EB0000E94C6240C9469270E94A224880B990B97
:104EC000089529F416F00C9433250C947D250C9448
:104ED00039250E946325A8F39638A0F707F80F92AA
:104EE000E8942BE33AEA48EB5FE70E94DC240F9258
:104EF0000F920F924DB75EB70F920E945428E8E6CA
:104F0000F0E00E949B274F915F91EF91FF91E59513
:104F1000EE1FFF1F49F0FE57E0684427EE0F441FC5
:104F2000FA95E1F74195550B0E94CE270F9007FEA9
:104F30000C94C2270895DF93CF931F930F93FF9292
:104F4000EF92DF927B018C01689406C0DA2EEF01AC
:104F50000E94D924FE01E894A591259135914591AF
:104F60005591A6F3EF010E941126FE019701A801B9
:104F7000DA9469F7DF90EF90FF900F911F91CF9136
:104F8000DF9108959B01AC0160E070E080E89FE351
:104F90000C9466260C9433250C9488280E94632573
:104FA000D8F39923C9F3940F511DA3F391505040A6
:104FB00094F059F0882332F0660F771F881F9150C4
:104FC0005040C1F79E3F51052CF7880F911D9695D3
:104FD000879597F908955F3FACF0983E9CF0BB270A
:104FE000869577956795B79508F4B1609395C1F765
:104FF000BB0F58F711F460FFE8CF6F5F7F4F8F4F03
:105000009F4FE3CF0C947E2516F00C9488280C94C7
:10501000392568940C9433250E946325A8F39923BD
:10502000C1F3AEF3DF93CF931F930F93FF92C92F7A
:10503000DD2788232AF02197660F771F881FDAF76C
:1050400020E030E040E85FEB9FE3883920F0803ECD
:1050500038F021968F770E94FA25E0E9F0E004C04D
:105060000E94FA25EDEBF0E00E949B278B01BE0128
:10507000EC01FB2E6F5771097595771F880B990B03
:105080000E94672428E132E741E35FE30E94D924CC
:10509000AF2D9801AE01FF900F911F91CF91DF913D
:1050A0000E9411260C944A25FA01DC01AA0FBB1FAD
:1050B0009B01AC01BF5728F422273327442750789F
:1050C00020C0B75190F4AB2F002446953795279513
:1050D000011CA395D2F3002071F0220F331F441F4F
:1050E000B395DAF30ED00C94F92561307105A0E880
:1050F0008A07B94630F49B01AC01662777278827D9
:105100009078309621F02083318342835383089531
:105110009F3F31F0915020F4879577956795B7952B
:10512000880F911D9695879597F908950F931F9372
:10513000CF93DF938230910510F482E090E0E0910C
:10514000DB06F091DC0630E020E0B0E0A0E0309734
:1051500099F42115310509F44AC0281B390B243074
:105160003105D8F58A819B816115710589F1FB01B3
:1051700093838283FE0111C040815181028113819A
:1051800048175907E0F04817590799F4109761F04C
:1051900012960C93129713961C933296CF01DF91BF
:1051A000CF911F910F9108950093DB061093DC06B9
:1051B000F4CF2115310551F04217530738F0A901FA
:1051C000DB019A01BD01DF01F801C1CFEF01F9CF89
:1051D0009093DC068093DB06CDCFFE01E20FF31F38
:1051E000819391932250310939832883D7CF20911D
:1051F000D9063091DA06232B41F420911301309126
:1052000014013093DA062093D906209111013091D0
:1052100012012115310541F42DB73EB7409115011A
:1052200050911601241B350BE091D906F091DA0656
:10523000E217F307A0F42E1B3F0B2817390778F06D
:10524000AC014E5F5F4F2417350748F04E0F5F1FCC
:105250005093DA064093D906819391939FCFF0E063
:10526000E0E09CCFCF93DF930097E9F0FC01329709
:1052700013821282A091DB06B091DC06ED0130E0D2
:1052800020E01097A1F420813181820F931F20919B
:10529000D9063091DA062817390709F061C0F09372
:1052A000DA06E093D906DF91CF910895EA01CE178F
:1052B000DF07E8F54A815B819E0141155105B1F791
:1052C000E901FB83EA8349915991C40FD51FEC177B
:1052D000FD0761F4808191810296840F951FE90199
:1052E00099838883828193819B838A83F0E0E0E0C5
:1052F00012968D919C9113970097B9F52D913C9141
:105300001197CD010296820F931F2091D9063091FB
:10531000DA062817390739F6309751F51092DC066E
:105320001092DB06B093DA06A093D906BCCFD383E4
:10533000C28340815181840F951FC817D90761F43A
:105340004E5F5F4F88819981480F591F5183408379
:105350008A819B81938382832115310509F0B0CF27
:10536000F093DC06E093DB069ECFFD01DC01C0CFAD
:1053700013821282D7CFB0E0A0E0E1ECF9E20C9406
:105380009C258C01009751F4CB010E9496288C013A
:10539000C801CDB7DEB7E0E10C94B825FC01E60FFB
:1053A000F71F9C0122503109E217F30708F49DC052
:1053B000D901CD91DC911197C617D70798F0C53068
:1053C000D10530F3CE0104978617970708F3C61B63
:1053D000D70B2297C193D1936D937C93CF010E94F9
:1053E0003229D6CF5B01AC1ABD0A4C018C0E9D1E32
:1053F000A091DB06B091DC06512C412CF12CE12C64
:10540000109731F58091D9069091DA0688159905A3
:1054100009F05CC04616570608F058C0809111018B
:1054200090911201009741F48DB79EB740911501FC
:1054300050911601841B950BE817F90708F055C029
:10544000F093DA06E093D906F90171836083A0CF67
:105450008D919C91119712966C90129713967C9057
:105460001397A815B90559F56C0142E0C40ED11C7B
:10547000CA14DB0420F1AC014A195B09DA01129667
:10548000159780F06282738251834083D9016D93B6
:105490007C93E114F10471F0D7011396FC93EE9321
:1054A000129776CF22968C0F9D1FF90191838083EE
:1054B000F301EFCFF093DC06E093DB0669CF4816EB
:1054C000590608F42C017D01D3019ACFCB010E942B
:1054D00096287C01009749F0AE01B8010E947D2A10
:1054E000C8010E943229870153CF10E000E050CF5D
:1054F00081E090E0F8940C948D2AFB01DC0102C05D
:1055000001900D9241505040D8F70895FB01DC0105
:1055100001900D920020E1F7089511E0C0E3D1E081
:1055200004C0FE010E94F3252196C133D107C9F7BB
:04553000F894FFCF1D
:10553400FFFFFFFF04000080400000804000008067
:10554400400000DD0680000040145400401050006C
:10555400000000DB01AE01430E8401A70194018524
:10556400010000000016057604A3046305D404B208
:1055740004C60400000000F40A76049A0A420E00ED
:105584000000000C0D7604430E420EF60DF80CDFFD
:105594000CC00C00000000261314130213E612A61C
:1055A400126612111210140D0A006E616E00696EFB
:1055B40066006F76660066696C6C696E6720704879
:1055C4000066696C6C696E672065630020002E308C
:1055D4007048006D732F636D004300504F494E5463
:1055E400205341564544005345542052414E4745AB
:1055F400204D4F44450043414C4942204D4F4445C2
:105604000070482F4543206D6574657200496E7AB9
:10561400796E69657220446F6D7500646174612EE2
:105624006C6F670043616C6962726174696F6E3A92
:105634000070683A2070315F783A002070315F79E9
:105644003A002070325F783A002070325F793A0075
:1056540065633A2070315F783A0064006C002C0076
:00000001FF
