:100000000C9431010C9459010C9459010C94590130
:100010000C9459010C94EE170C9459010C9459014D
:100020000C9459010C9459010C9459010C945901E8
:100030000C9459010C9459010C9459010C945901D8
:100040000C944C170C9459010C94BC170C949617F3
:100050000C9459010C9459010C9459010C945901B8
:100060000C942D160C94590107634236B79BD8A700
:100070001A39685618AEBAAB558C1D3CB7CC5763CD
:10008000BD6DEDFD753EF6177231BF000000803F7B
:1000900008000000BE922449123EABAAAA2ABECD97
:1000A000CCCC4C3E00000080BEABAAAAAA3E000009
:1000B0000000BF000000803F000000000008417801
:1000C000D3BB4387D1133D190E3CC3BD4282AD2B38
:1000D0003E68EC8276BED98FE1A93E4C80EFFFBE30
:1000E00001C4FF7F3F000000000000407A10F35A77
:1000F00000A0724E18090010A5D4E80000E8764868
:10010000170000E40B54020000CA9A3B000000E113
:10011000F505000080969800000040420F000000A6
:10012000A08601000000102700000000E803000086
:1001300000006400000000000A0000000000010050
:10014000000000002C76D888DC674F0823DFC1DF71
:10015000AE59E1B1B796E5E3E453C63AE651997674
:1001600096E8E6C28426EB898C9B62ED407C6FFCAE
:10017000EFBC9C9F40F2BAA56FA5F490055A2AF7F0
:100180005C936B6CF9676DC11BFCE0E40D47FEF5F9
:1001900020E6B500D0ED902E030094357705008061
:1001A000841E080000204E0A000000C80C333333C0
:1001B000330F986E12831141EF8D2114893BE65560
:1001C00016CFFEE6DB18D1844B381BF77C1D901D43
:1001D000A4BBE424203284725E228100C9F124ECA5
:1001E000A1E53D27005EBCE2613FDD83C29C7E202D
:1001F000A3FD1F41009D23BE46DB65F88C11AF3285
:10020000CA57E97400000000240027002A000000FB
:100210000000250028002B0000000008000201005B
:1002200000030407000000000000000000000000C0
:100230002300260029000404040404040404020228
:100240000202020203030303030301020408102055
:1002500040800102040810200102040810209118B7
:10026000CC2211241FBECFEFD8E0DEBFCDBF27E0E8
:10027000A2E5B2E001C01D92AF32B207E1F712E091
:10028000A0E0B1E0E6EEF6E502C005900D92A235E1
:10029000B107D9F711E0C0E3D1E004C02197FE0116
:1002A0000E94CC26CF32D107C9F70E94AB1A0C941A
:1002B000662B0C94000020912D05260F3327331F49
:1002C00021323105ECF420917805FC0190E080E0CA
:1002D000243069F082E00895A0912D052191AC01B0
:1002E000455F5A4FA40FB52FB11D2C930196861769
:1002F00098F380912D05680F60932D0580E0089597
:1003000081E00895089508950895E0910905809188
:100310000805E81730F4F0E0E851FB4F808190E0E9
:1003200008958FEF9FEF089590910905809108053A
:100330002FEF3FEF981748F4E92FF0E0E851FB4F1B
:10034000208130E09F5F90930905C9010895809155
:10035000080590910905891B990B0895CF92DF92AA
:10036000EF92FF920F931F93CF93DF937C01CB010A
:100370008A0120917E05222389F0EB016B01C40ED6
:10038000D51ECC15DD0569F06991D701ED91FC9181
:100390000190F081E02DC7010995F3CF642F0E94F1
:1003A0005B01C801DF91CF911F910F91FF90EF90FA
:1003B000DF90CF900895CF93DF931F92CDB7DEB734
:1003C000698320917E052223F9F02091A105203236
:1003D00058F021E030E0FC013383228390E080E09C
:1003E0000F90DF91CF91089580917F05E82FF0E085
:1003F000E058FA4F998190838F5F80937F058093B7
:10040000A10581E090E0ECCF61E0CE0101960E9471
:100410005B01F7CF833081F028F4813099F082308E
:10042000A9F008958730A9F08830C9F08430B1F47C
:10043000809180008F7D03C0809180008F778093B2
:100440008000089584B58F7784BD089584B58F7D2D
:10045000FBCF8091B0008F778093B000089580919A
:10046000B0008F7DF9CFCF93DF93282F30E0F901D3
:10047000E85EFD4F8491F901E65BFD4FD491F901EF
:10048000EA5CFD4FC491CC23A1F081110E940A02C5
:10049000EC2FF0E0EE0FFF1FE45DFD4FA591B4914E
:1004A000EC91ED2381E090E009F480E0DF91CF91C1
:1004B000089580E090E0FACF1F93CF93DF93282F29
:1004C00030E0F901E85EFD4F8491F901E65BFD4FF4
:1004D000D491F901EA5CFD4FC491CC23A9F0162F09
:1004E00081110E940A02EC2FF0E0EE0FFF1FE25F85
:1004F000FD4FA591B4918FB7F894EC91111108C0FC
:10050000D095DE23DC938FBFDF91CF911F910895AB
:10051000DE2BF8CF1092780581E08093770510925A
:10052000520561E082E10E945C0261E083E10E9489
:100530005C02E9EBF0E080818E7F808380818D7F9B
:10054000808388E48093B80085E48093BC0008959C
:10055000CF93DF9391E090930A058823B9F0C0917F
:10056000B800D091BA008091BC008A7B8093BC0017
:1005700060E082E10E945C0260E083E10E945C0234
:100580000E948A02D093BA00C093B800DF91CF9145
:100590000895CF93DF9390E0FC01E65BFD4F24913B
:1005A0008A5C9D4FFC0184918823C9F090E0880FFC
:1005B000991FFC01EC5FFD4FA591B491FC01E25F36
:1005C000FD4FC591D49161110DC09FB7F8948C91E6
:1005D000209582238C938881282328839FBFDF91D5
:1005E000CF910895623051F49FB7F8943C91822FD7
:1005F000809583238C93E8812E2BEFCF8FB7F894CF
:10060000EC912E2B2C938FBFEACF8E508064809379
:100610007C0080917A00806480937A0080917A00D7
:1006200086FDFCCF809178009091790008953FB7C6
:10063000F8948091E4049091E504A091E604B091CF
:10064000E70426B5A89B05C02F3F19F00196A11D10
:10065000B11D3FBFBA2FA92F982F8827BC01CD010C
:10066000620F711D811D911D42E0660F771F881F6B
:10067000991F4A95D1F70895CF92DF92EF92FF929A
:100680000F931F93CF93DF93D091A10581E0D132D7
:1006900008F09CC0C091A0050E9417036B017C016B
:1006A0008091780581116CC082E08093780581E0AB
:1006B000809377058FEF8093760510927505D09320
:1006C0007405A0E8B5E0E4E5F5E080E0D8138DC05E
:1006D0001092530580915305CC0FC82BC09353053E
:1006E00080915205813009F084C0109252050E9419
:1006F00017036B017C01809153058093BB008091AF
:100700007A0590917B05A0917C05B0917D05892BA0
:100710008A2B8B2BA1F00E94170300917A05109170
:100720007B0520917C0530917D056C197D098E0932
:100730009F09061717072807390708F442C0809158
:10074000BC0083FDD8CF85EC8093BC000E941703CA
:100750006B017C0180917805823009F44CC0809156
:1007600076058F3F09F469C080917605803209F4DF
:1007700066C080917605803309F463C084E026C0AA
:1007800080917A0590917B05A0917C05B0917D05C3
:10079000892B8A2B8B2B09F483CF0E94170300919E
:1007A0007A0510917B0520917C0530917D056C19AF
:1007B0007D098E099F09061717072807390708F0D2
:1007C0006FCF809179050E94A80285E010927F0585
:1007D0001092A10510927E05DF91CF911F910F918C
:1007E000FF90EF90DF90CF9008959D9191938F5F50
:1007F0006DCF85EEA9CF80917A0590917B05A09170
:100800007C05B0917D05892B8A2B8B2B09F4A2CF17
:100810000E94170300917A0510917B0520917C05B9
:1008200030917D056C197D098E099F090617170700
:100830002807390708F08ECFC4CF80E0C7CF82E009
:10084000C5CF83E0C3CF8F929F92AF92BF92CF92DA
:10085000DF92EF92FF924B015C010E9417036B0144
:100860007C010E9417036C197D098E099F09683E5F
:10087000734081059105A8F321E0821A9108A1082F
:10088000B10888EEC80E83E0D81EE11CF11C81146B
:100890009104A104B10429F7FF90EF90DF90CF906D
:1008A000BF90AF909F908F9008952FB7F89460916C
:1008B000E0047091E1048091E2049091E3042FBF81
:1008C0000895DC01ED91FC910190F081E02D0994F7
:1008D000DB0114964D915C9115976D917C91DC0133
:1008E000ED91FC910280F381E02D0994AF92BF92CB
:1008F000CF92DF92EF92FF920F931F93CF93DF93EC
:100900006C017B018B01040F151FEB015E01AE181A
:10091000BF08C017D10759F06991D601ED91FC913C
:100920000190F081E02DC6010995892B79F7C50169
:10093000DF91CF911F910F91FF90EF90DF90CF90BB
:10094000BF90AF900895FC01538D448D252F30E06A
:10095000842F90E0821B930B541710F0CF960895CC
:1009600001970895FC01918D828D981761F0A28DF9
:10097000AE0FBF2FB11D5D968C91928D9F5F9F73BF
:10098000928F90E008958FEF9FEF0895FC01918D75
:10099000828D981731F0828DE80FF11D858D90E0E2
:1009A00008958FEF9FEF0895FC01918D228D892F7F
:1009B00090E0805C9F4F821B91098F739927089567
:1009C0008EEA95E00E94D40421E0892B09F420E00E
:1009D000822F089580E090E0892B29F00E94E004A6
:1009E00081110C9400000895FC01A48DA80FB92F6B
:1009F000B11DA35ABF4F2C91848D90E001968F7347
:100A00009927848FA689B7892C93A089B1898C9165
:100A1000837080648C93938D848D981306C00288B4
:100A2000F389E02D80818F7D80830895EF92FF927E
:100A30000F931F93CF93DF93EC0181E0888F9B8D01
:100A40008C8D98131AC0E889F989808185FF15C0BB
:100A50009FB7F894EE89FF896083E889F9898081DE
:100A60008370806480839FBF81E090E0DF91CF91AD
:100A70001F910F91FF90EF900895F62E0B8D10E0CF
:100A80000F5F1F4F0F731127E02E8C8D8E110CC03E
:100A90000FB607FCFACFE889F989808185FFF5CF89
:100AA000CE010E94F404F1CFEB8DEC0FFD2FF11D70
:100AB000E35AFF4FF0829FB7F8940B8FEA89FB89C6
:100AC00080818062CFCFCF93DF93EC01888D882324
:100AD000B9F0AA89BB89E889F9898C9185FD03C0A1
:100AE000808186FD0DC00FB607FCF7CF8C9185FF86
:100AF000F2CF808185FFEDCFCE010E94F404E9CFD3
:100B0000DF91CF91089520915E02211109C021E06B
:100B100020935E0230914B0620914C063CBD2DBDCA
:100B200060E0FC0184810C945C0261E0FC01848142
:100B30000E945C0280915E02811110925E02089513
:100B40008EBD00000DB407FEFDCF8EB508958FEF6A
:100B50000C94A0050F931F93CF93DF93EC010E9499
:100B600055048B010E94A7058F3F69F00E94550430
:100B7000601B710B6C177D07A8F380E0DF91CF91AC
:100B80001F910F91089581E0F9CFCF92DF92EF92FC
:100B9000FF920F931F93CF93DF93EC01162F690100
:100BA0007A018E81882389F08F8198859C012F5F3F
:100BB0003F4F38872F838230924018F40E94A70558
:100BC000F3CFCE010E9495051E82CE010E948305BF
:100BD0008CE291E00E94AA05812F80640E94A0050A
:100BE00008E110E0D701C601002E04C0B695A79514
:100BF000979587950A94D2F70E94A005085011098D
:100C0000083F8FEF180771F78FEF0E94A00510E0E3
:100C10000E94A7058A8787FF04C01F3F11F01F5F4E
:100C2000F7CFDF91CF911F910F91FF90EF90DF9061
:100C3000CF900895CF92DF92EF92FF920F93CF93D0
:100C4000DF93EC01690182E14115510561057105F0
:100C500099F08B85833039F089E0440F551F661F6A
:100C6000771F8A95D1F79A01AB0168E1CE010E9406
:100C7000C505882319F084E08D832DC08EEF0E9476
:100C8000A00576018EEFD81AF70181917F010E94AD
:100C9000A005EC14FD04C1F78FEF0E94A0058FEFB3
:100CA0000E94A0050E94A7058A878F71853071F484
:100CB000011116C0CE010E94950581E0DF91CF9110
:100CC0000F91FF90EF90DF90CF90089581E18D8399
:100CD000CE010E949505CE010E94950580E0EECFE1
:100CE00088E592E00E94AA05811102C085E1C4CF87
:100CF00020E030E0A9016DE0CE010E94C505882307
:100D000011F084E1B9CF0E94A7058111FACFD2CFAB
:100D10000F93409160025091610260916202709164
:100D20006302411551056105710589F0082F24E61C
:100D300032E090E080E00E941A06882349F0109289
:100D4000600210926102109262021092630281E0CE
:100D50000F9108950F93CF93C82F80915F02811157
:100D600005C0C1E08C2FCF910F91089540910001F3
:100D70005091010160910201709103010C2F24E652
:100D800032E090E080E00E941A06811102C0C0E0CB
:100D9000E9CFCC2331F381E00E9488068823B9F3A0
:100DA00010925F02DFCFAF92BF92CF92DF92EF92AD
:100DB000FF921F93CF93DF936B017C01142F8091DF
:100DC000000190910101A0910201B09103018C15E5
:100DD0009D05AE05BF0509F4ADC081E00E94AA06DD
:100DE0008823E1F1809106008823A1F08091000022
:100DF00090910100A0910200B0910300C816D9069D
:100E0000EA06FB0639F48091070090910800892BCF
:100E100009F44FC0C0920000D0920100E09202009D
:100E2000F092030080910B00A7019601833039F006
:100E300099E0220F331F441F551F9A95D1F761E1A6
:100E400090E080E00E94C505882391F083E08093C4
:100E5000050090E080E00E94950580E0DF91CF9151
:100E60001F91FF90EF90DF90CF90BF90AF900895CB
:100E70000E945504EB010E94A70580930A008F3F52
:100E800079F40E9455046C1B7D0B6D32714098F310
:100E90008FE08093050090E080E00E949505D9CF17
:100EA0008E3FC1F5109208001092070081E08093F8
:100EB0000600C4E6D2E084E6A82E84E0B82E0E94A4
:100EC000A7058993AC16BD06D1F7809107009091D4
:100ED00008009E5F9093080080930700209109000E
:100EE000222319F081159240E8F0809106008823B2
:100EF000C9F080910700909108009C012F5F3F4F3F
:100F000030930800209307008230924028F40E941A
:100F1000A705EFCF8DE0BDCF90E080E00E94950562
:100F200010920600C0920001D0920101E0920201ED
:100F3000F092030140915F02412B40935F0281E0F8
:100F40008DCF4F925F926F927F928F929F92AF92CE
:100F5000BF92CF92DF92EF92FF920F931F93CF93A6
:100F6000DF93EC01423051056105710590F480E09A
:100F7000DF91CF911F910F91FF90EF90DF90CF9075
:100F8000BF90AF909F908F907F906F905F904F90A9
:100F9000089589859A85AB85BC850196A11DB11DF3
:100FA00084179507A607B70710F3CB88DC88ED8870
:100FB000FE888F89803109F042C0BB27A72F962F6A
:100FC000852F480159012A013B01C80ED91EEA1E8E
:100FD000FB1E8091000190910101A0910201B0914E
:100FE0000301C816D906EA06FB0699F58F898031F8
:100FF000C1F5B301A201552766277727440F551F76
:101000004C595D4FFA019182808280915F0281602C
:1010100080935F028A89823080F08D819E81AF81CA
:10102000B8858C0D9D1DAE1DBF1D809360029093F1
:101030006102A0936202B093630281E099CFDB0169
:10104000CA01E7E0B695A79597958795EA95D1F7F8
:10105000B8CF40E0C701B6010E94D3068111C6CFC8
:1010600086CFB301A2014F77552766277727440F14
:10107000551F440F551F4C595D4FFA0180829182D4
:10108000A282B382C2CF8F929F92AF92BF92CF9231
:10109000DF92EF92FF920F931F93CF93DF93FC01A8
:1010A00081859285A385B4850196A11DB11D841704
:1010B0009507A607B70770F480E0DF91CF911F91E5
:1010C0000F91FF90EF90DF90CF90BF90AF909F90E7
:1010D0008F90089583889488A588B6888789803101
:1010E00089F5BB27A72F962F852FE9016A017B0180
:1010F0008F01BC01CD01680D791D8A1D9B1D80905B
:10110000000190900101A0900201B09003018616A9
:101110009706A806B90601F5F8018789803111F50F
:10112000DD24EE24FF24F601EE0FFF1FEC59FD4FE6
:1011300080819181B0E0A0E088839983AA83BB83FA
:1011400081E0BBCFDB01CA01C7E0B695A7959795B3
:101150008795CA95D1F7C9CF40E00E94D306811187
:10116000DBCFAACFE894C7F8DD24EE24FF24F601F4
:10117000EE0FFF1FEE0FFF1FEC59FD4F8081918195
:10118000A281B381BF70D8CF8F929F92AF92BF924E
:10119000CF92DF92EF92FF920F931F93CF93DF9343
:1011A000EC018D8181110EC080E0DF91CF911F9104
:1011B0000F91FF90EF90DF90CF90BF90AF909F90F6
:1011C0008F9008950B891C892D893E890417150776
:1011D0002607370748F34A015B01823031F48A86DB
:1011E0009B86AC86BD8681E0E0CF81149104A1048A
:1011F000B10449F41E821F82188619861A861B863E
:101200001C861D86F0CF0A851B852C853D85EB8DC0
:10121000FC8D858590E00996B901A80141505109DE
:1012200061097109082E04C0769567955795479511
:101230000A94D2F775016401E1E0CE1AD108E10801
:10124000F10804C0F694E794D794C7948A95D2F72E
:10125000C416D506E606F70620F0012B022B032B59
:1012600011F58F89988DA98DBA8D8E839F83A8875C
:10127000B9878E010A5F1F4FC114D104E104F10444
:1012800009F4ADCF4E815F816885798598018B8D9A
:101290009C8D0E94430891E0C91AD108E108F10829
:1012A0008111EACF81CFC41AD50AE60AF70AE1CF45
:1012B0003F924F925F926F927F928F929F92AF92E6
:1012C000BF92CF92DF92EF92FF920F931F93CF9333
:1012D000DF93CDB7DEB72C970FB6F894DEBF0FBE05
:1012E000CDBF5C01DC015B968D909C905C9716965F
:1012F0004D905D906D907C9019974114510461045C
:10130000710409F468C0BFEF4B1A5B0A6B0A7B0AD1
:10131000312CF40181859285A385B4859C01AD01B2
:101320002F5F3F4F4F4F5F4F29873A874B875C872F
:10133000730162011D821E821F821886F40181855D
:101340009285A385B4852D813E814F8158852817CC
:1013500039074A075B0708F056C089859A85AB852F
:10136000BC858C159D05AE05BF0550F482E0C82EE6
:10137000D12CE12CF12C92E0492E512C612C712CB6
:101380009E012F5F3F4FB701A601C4010E94430891
:101390008823C9F189819A81AB81BC81892B8A2BF1
:1013A0008B2B09F1260137019FEF491A590A690A67
:1013B000790A2D813E814F8158852F5F3F4F4F4FD6
:1013C0005F4F2D833E834F8358873FEFC31AD30A65
:1013D000E30AF30AB3CFF401408051806280738046
:1013E0003324339496CFC414D504E604F70409F7E4
:1013F0000FEF1FEF2FEF3FE0B701A601C4010E94DE
:10140000A107811119C080E02C960FB6F894DEBFB9
:101410000FBECDBFDF91CF911F910F91FF90EF9045
:10142000DF90CF90BF90AF909F908F907F906F9004
:101430005F904F903F900895D50116964D915D9124
:101440006D917C911997411551056105710539F030
:1014500097018601C4010E94A1078823A1F2D5014A
:101460001696CD92DD92ED92FC921997332051F0B1
:10147000D701C6010196A11DB11DF401808391839E
:10148000A283B383F5018789908DA18DB28D892BBD
:101490008A2B8B2B39F48481C78AD08EE18EF28E11
:1014A00080688483F50184818062848381E0ACCF8D
:1014B0001F93CF93DF93EC01162F8C8187FF2AC0F7
:1014C0006E857F858889998941E00E94D3068823AB
:1014D00061F1EA8980E2E89FF0011124EC59FD4FA7
:1014E000309719F18D81823040F48B899C89AD89C8
:1014F000BE89848F958FA68FB78F8F89988D938F94
:10150000828F8F89988DA98DBA8DB58BA48B8C8194
:101510008F778C83111103C08C818F7E8C83812FF8
:10152000DF91CF911F910C94AA0680E0DF91CF91BB
:101530001F9108951F93CF93DF93EC018D8181302C
:1015400031F090E080E0DF91CF911F9108958C8180
:1015500081FFF7CF82FD1BC090E080E00E948305F1
:101560000E94A705182F90E080E00E9495051F3F7C
:1015700041F78C8185FF1EC08D81882321F060E0BA
:10158000CE010E94580A8C818F7D8C83DACF4B89E3
:101590005C896D897E898A859B85AC85BD8584172C
:1015A0009507A607B707C1F2CE010E94C4088111B2
:1015B000D3CFC7CF40916002509161026091620227
:1015C00070916302452B462B472B21F080E00E944F
:1015D0008806B7CF80618C832A853B85317080E097
:1015E00092E0821B930BAFCF9F92AF92BF92CF92AC
:1015F000DF92EF92FF920F931F93CF93DF9300D070
:1016000000D01F92CDB7DEB78C016D83DC0115963B
:101610008C911597813009F0B9C014968C9181FF97
:10162000B5C082FD9FC0D8015B96ED91FC915C979F
:101630001A96AD90BD90CD90DC901D9794809A94B1
:10164000B601A50189E076956795579547958A95E6
:10165000D1F79422B1E0BB22992009F49FC0D801B0
:101660005B96ED91FC915C971696CD90DD90ED9098
:10167000FC901997B2E0CB1AD108E108F1088585F2
:1016800004C0CC0CDD1CEE1CFF1C8A95D2F74685ED
:10169000578560897189C40ED51EE61EF71EC90CD8
:1016A000D11CE11CF11CA114B10409F00AC1F8011C
:1016B000428553856485758583899489A589B68912
:1016C000481759076A077B0708F4FBC081E00E94AE
:1016D000AA06882309F45AC0C0920001D0920101E1
:1016E000E0920201F092030180915F028160809399
:1016F0005F02F501EC59FD4F8D818083F8018285F1
:101700009385A485B5850196A11DB11D8287938718
:10171000A487B5874389548965897689481759070D
:101720006A077B0738F42481838B948BA58BB68B57
:1017300020682483D80114968C9183FD9FC081E09A
:1017400090E00F900F900F900F900F90DF91CF913E
:101750001F910F91FF90EF90DF90CF90BF90AF90CF
:101760009F900895F8014389548965897689828517
:101770009385A485B585481759076A077B0709F43F
:1017800052CFC8010E94C40881114DCF81E090E082
:10179000D80113969C938E93129749C0D801169640
:1017A0004D915D916D917C911997A114B10409F04F
:1017B00071C0411551056105710589F557968D91E7
:1017C0009D910D90BC91A02D0097A105B10509F048
:1017D0004FC0C8010E9458098823C1F2D8015B9606
:1017E000ED91FC915C971696CD90DD90ED90FC907C
:1017F0001997B2E0CB1AD108E108F108858504C039
:10180000CC0CDD1CEE1CFF1C8A95D2F74685578553
:1018100060897189C40ED51EE61EF71E48CF9E0151
:101820002F5F3F4FCF010E944308811103C090E01A
:1018300080E087CF89819A81AB81BC81F801238DBB
:10184000348DF901278948EF5FEF60E070E02031C7
:1018500021F048EF5FEF6FEF7FE084179507A60751
:10186000B70730F0C8010E9458098111F8CE8ECF19
:10187000F80186839783A087B187F1CEF80185812F
:10188000882309F483CF61E0C8010E94580A8111BE
:1018900056CF7CCF6A017B01B2E0CB1AD108E108B8
:1018A000F108858504C0CC0CDD1CEE1CFF1C8A955C
:1018B000D2F74685578560897189C40ED51EE61E0C
:1018C000F71E41E0C701B6010E94D306811111CF76
:1018D0005DCFFC0123812223E1F08181682B6083AD
:1018E000828191E090937E058093A00510927F0500
:1018F0001092A10582EA95E00E94DB010E943C0360
:10190000282F30E081E090E0232B11F090E080E080
:10191000089530E020E0F6CFEF92FF920F931F93EF
:10192000CF938C01FC0184E0C0E0262F30E060FF03
:1019300002C09589C92BB90175956795815031967B
:101940008111F3CF413011F4F8014489F801658524
:10195000C62BC42B7801FEE0EF0EF11CF801628962
:101960006C2BC7010E94690CF801628960956C2399
:10197000C701CF911F910F91FF90EF900C94690CCC
:101980000F931F93CF93DF93062F0F70423041F4D4
:1019900040E0602FDF91CF911F910F910C948C0C40
:1019A000142FEC0170E084E0759567958A95E1F756
:1019B000CE010E948C0C412F602FCE01EBCFFC0199
:1019C00084858823A1F0218532852115310521F4F4
:1019D000611107C0158606C021303105D9F76111A4
:1019E000F9CF85876585CF010E960C94690C089513
:1019F00021E001C0220F6A95EAF7DC011C962C93C6
:101A00001C971A965C934E931997ED91FC91048460
:101A1000F585E02D60E00994DC01ED91FC910684F0
:101A2000F785E02D41E0099581E090E00895DC0123
:101A3000ED91FC910684F785E02D40E009940F9329
:101A40001F93CF93DF93CDB7DEB728970FB6F894E7
:101A5000DEBF0FBECDBF00910A0110910B01209196
:101A60000C0130910D010D831E832F833887009167
:101A70000E0110910F012091100130911101098385
:101A80001A832B833C83FC012781621710F06FEFD0
:101A9000620F70E0FC0130856C0F7D1FFB0130315F
:101AA00081F4243071F46181606828960FB6F8944F
:101AB000DEBF0FBECDBFDF91CF911F910F910C9470
:101AC000170D6581F1CF61E00E94170D8BE39FE157
:101AD0000197F1F708950F931F93CF93DF93EC01D4
:101AE000423018F08C8188608C834F836887222372
:101AF00029F0413019F48C8184608C8364E670E0B5
:101B000080E090E00E9423046C8164FD57C0E8816E
:101B1000F9810684F785E02D42E063E0CE01099566
:101B20008BE496E40197F1F7E881F9810684F78563
:101B3000E02D42E063E0CE01099503E512E0C80123
:101B40000197F1F7E881F9810684F785E02D42E0FD
:101B500063E0CE010995C8010197F1F7E881F981A9
:101B60000684F785E02D42E062E0CE010995C801C8
:101B70000197F1F76C816062CE010E94170D8BEE28
:101B800090E00197F1F784E08D836CE0CE010E9434
:101B9000170DCE010E94630D82E08E8366E0CE01B8
:101BA0000E94170DE881F9810484F585E02D6FEF1F
:101BB000CE01DF91CF911F910F9109946062CE0108
:101BC0000E94170D8BE496E40197F1F76C81606237
:101BD000CE010E94170D03E512E0C8010197F1F74D
:101BE0006C816062CE010E94170DC1CFEF92FF920F
:101BF0000F931F93CF93DF93EC01062FF42EE22E69
:101C00008B85888B109209051092080510927F052C
:101C10001092A1050E948A0282E891E090932C051F
:101C200080932B0583E891E09093300580932F05F6
:101C3000888911E010937E058093A0050E943C03E3
:101C400081111CC0198B82EA95E00E9494018E8755
:101C50008989882339F01F861C8260E0CE010E96A8
:101C60000E94690C2E2D4F2D602FCE01DF91CF9158
:101C70001F910F91FF90EF900C946B0D198AE8CF94
:101C800008950895089590E080E00895DC0180E0D3
:101C9000615090F09D919827E92FEF70F0E0EC51A2
:101CA000FE4F2491E92FE295EF70F0E0EC50FE4FEB
:101CB000E491822F8E27ECCF0895DC012C911196B0
:101CC000ED91FC91F8948181822B81839281322F56
:101CD00030959323928387E090E00197F1F781811B
:101CE0008323818383E290E00197F1F790817894D8
:101CF000EFECF0E03197F1F7922381E009F480E016
:101D00000895FC0190810180F281E02D292F20951A
:101D100060FF14C0F8948281822382838181892BA1
:101D20008183A3E2B0E01197F1F78281982B92832F
:101D3000789487ED90E00197F1F70895F894828107
:101D4000822382838181892B8183AFEFB0E0119759
:101D5000F1F78281982B928378948FE090E0EBCF1B
:101D6000DF92EF92FF920F931F93CF93DF93EC01DB
:101D7000D62EE42E08E010E0FF24F39461E08D2DD0
:101D80008F2109F460E0CE010E94810EFF0C01500A
:101D90001109A1F7E11010C0F894E981FA8191814D
:101DA0008881809589238183E981FA819281888164
:101DB0008095892382837894DF91CF911F910F9131
:101DC000FF90EF90DF900895FC0190810180F281F7
:101DD000E02DF8948181292F2095822381837894A6
:101DE0003DE743E050E0315029F1DA011197F1F776
:101DF00080818923C1F3F894828182238283818147
:101E0000892B81837894ABE7B7E01197F1F7F894C9
:101E1000818182238183A3E1B1E01197F1F7808171
:101E2000982381E009F080E07894E3E6F6E03197CA
:101E3000F1F7089580E00895CF93DF93C82F80EBEA
:101E400096E00E94E40E882391F0CC3C49F020F407
:101E5000C53581F080E00BC0CC3E11F0C03FD1F71A
:101E600040E06C2F80EB96E00E94B00E81E0DF91A5
:101E7000CF91089540E065E580EB96E00E94B00EBA
:101E8000C1ECD6E0699140E080EB96E00E94B00E94
:101E900086E0C93CD807B1F7E9CF0F931F93CF93E2
:101EA000DF93C0915C02D0915D028E0123E0000FB0
:101EB000111F2A95E1F7080F191FF801408351837C
:101EC000628373838091D8049091D9048330910503
:101ED00081F00497E9F02196C230D105D9F0D09372
:101EE0005D02C0935C0280E0DF91CF911F910F9162
:101EF00008958FE00E940503BC01990F880B990B90
:101F00000E944025F8016483758386839783E3CF1D
:101F100080E1F0CF10925D0210925C0281E0E4CF8C
:101F20004F925F926F927F928F929F92AF92BF92E9
:101F3000CF92DF92EF92FF920F931F93CF93DF9395
:101F40008C01EB01C880D980EA80FB808C809D8069
:101F5000AE80BF80A7019601688579858A859B85BB
:101F60000E94D2262B013C01A50194016C857D8540
:101F70008E859F850E94D2269B01AC01C301B201D0
:101F80000E943F279B01AC01F801208331834283EB
:101F90005383C501B4010E949F259B01AC01C70179
:101FA000B6010E94D226F8016483758386839783E5
:101FB000DF91CF911F910F91FF90EF90DF90CF9025
:101FC000BF90AF909F908F907F906F905F904F9059
:101FD0000895EF92FF920F931F93CF93DF9385E5C0
:101FE0000E941C0F882331F040E06EEB80EB96E0FE
:101FF0000E94B00EC9ECD6E088E0E82EF12C10E08B
:1020000001E080EB96E00E945D0E8111102B000F25
:1020100081E0E81AF108A9F7199386E0C23DD807D4
:1020200059F768E089EC96E00E94460E91E0209115
:10203000D106281390E0892FDF91CF911F910F9146
:10204000FF90EF900895CF93C091D30685E50E944D
:102050001C0F882341F041E0C11140E064E480EBB3
:1020600096E00E94B00E8091D306882349F180EB60
:1020700096E00E945D0E8823D1F30E94E90F6091E3
:10208000C9068091CA069091D2069A30D1F19B3050
:10209000D1F1993009F4687F90E0982F8827680F74
:1020A000792F711D072E000C880B990B0E9440257B
:1020B00020E030E040E85DE30E949F25CF91089545
:1020C0008091D2068A3099F048F48930B1F66EE5F5
:1020D00070E080E090E00E942304CFCF8B3061F06D
:1020E0008C3059F66EEE72E080E090E0F4CF6CEB4D
:1020F00070E080E090E0EFCF67E771E080E090E093
:10210000EACF6C7FC9CF6E7FC7CFFB010190002063
:10211000E9F73197AF01461B570BDC01ED91FC91BC
:102120000280F381E02D09948F929F92AF92BF922B
:10213000EF92FF920F931F93CF93DF93CDB7DEB74C
:10214000A1970FB6F894DEBF0FBECDBF7C01FA0198
:10215000CB0119A2223008F42AE08E010F5D1F4F37
:10216000822E912CB12CA12CBF01A50194010E94BB
:10217000AA26F901CA016A300CF5605DD8016E9398
:102180008D01232B242B252B79F790E080E01097ED
:1021900021F0BD01C7010E948510A1960FB6F894E9
:1021A000DEBF0FBECDBFDF91CF911F910F91FF908A
:1021B000EF90BF90AF909F908F900895695CDECFB5
:1021C000AB01770F660B770B2AE00C949410CF933A
:1021D000DF93BC018EEA95E00E948510EC016AE66F
:1021E00071E08EEA95E00E9485108C0F9D1FDF91B3
:1021F000CF910895CF93DF93AC01990F660B770BC6
:102200002AE08EEA95E00E949410EC016AE671E003
:102210008EEA95E00E9485108C0F9D1FDF91CF9173
:1022200008952F923F924F925F926F927F928F927A
:102230009F92AF92BF92CF92DF92EF92FF921F9345
:10224000CF93DF93EC016A017B01722EAB01960103
:10225000CB01B6010E9435286DE671E0811126C0E0
:1022600046015701E894B7F82FEF3FEF4FE75FE7DC
:10227000C501B4010E94352881110CC02FEF3FEF3A
:102280004FE75FE7C501B4010E94392561E771E0BE
:10229000181664F02FEF3FEF4FE75FE4C701B60178
:1022A0000E94E0271816B4F465E771E0CE01DF91D3
:1022B000CF911F91FF90EF90DF90CF90BF90AF90A4
:1022C0009F908F907F906F905F904F903F902F9056
:1022D0000C9485102FEF3FEF4FE75FECC701B6017D
:1022E0000E94392587FDE0CF20E030E0A901C70139
:1022F000B6010E943925312C212C87FF09C06DE2DF
:10230000CE010E9461041C01F7FAF094F7F8F094F2
:1023100010E060E070E080E09FE3711641F020E0A3
:1023200030E040E251E40E943F271F5FF6CFA70153
:1023300096010E94D3262B013C010E94B1274B013C
:102340005C012AE0BC01A401CE010E9494107C0132
:10235000E20CF31C1123C1F1C501B4010E943E251A
:102360009B01AC01C301B2010E94D2264B015C016A
:102370006EE2CE010E946104E80EF91E115020F1B8
:1023800020E030E040E251E4C501B4010E949F2505
:102390002B013C010E94B1274B01B12CA12C2AE05A
:1023A000B501A401CE010E949410E80EF91EC501EA
:1023B000B4010E943E259B01AC01C301B2010E9401
:1023C000D2264B015C01DACFC701DF91CF911F917B
:1023D000FF90EF90DF90CF90BF90AF909F908F9045
:1023E0007F906F905F904F903F902F900895CF9384
:1023F000DF93AB01BC0122E08EEA95E00E9411114F
:10240000EC016AE671E08EEA95E00E9485108C0F7F
:102410009D1FDF91CF91089522E00C9411110C942F
:102420008510CF93DF93EC0169E771E08EEA95E0C8
:102430000E940F124C815D816E817F818EEA95E052
:102440000E940C1267E871E08EEA95E00E940F127C
:10245000488159816A817B818EEA95E00E940C1245
:1024600064E971E08EEA95E00E940F124C855D856B
:102470006E857F858EEA95E00E940C1263EA71E01A
:102480008EEA95E00E940F12688579858A859B8582
:10249000DF91CF910C94F711CF92DF92EF92FF92E0
:1024A0001F93CF93DF93EC01162F0E9455046B010D
:1024B0007C012296CE010E94630D60E0CE010E9455
:1024C0001F0D8091530290915402A0915502B0913A
:1024D0005602C81AD90AEA0AFB0A87E9C816D104C3
:1024E000E104F10484F00E94550460935302709358
:1024F000540280935502909356028091520291E0CB
:10250000892780935202809152028823A1F0412FA3
:1025100050E070E060E02AE0CE010E94941062EB8F
:1025200071E0CE01DF91CF911F91FF90EF90DF908E
:10253000CF900C940F1260EB71E0CE010E940F124D
:10254000EECF4F925F926F927F928F929F92AF9257
:10255000BF92EF920F931F93CF93DF934A015B01DA
:102560003901EC012296CE010E94630D60E0CE019C
:102570000E941F0DB301A801CE010E940C1267EB4F
:1025800071E0CE010E940F1261E0CE010E941F0D8A
:10259000B501A401CE010E940C126FEDCE010E9484
:1025A00061046DEB71E0CE010E940F126E2D70E0A0
:1025B000CE01DF91CF911F910F91EF90BF90AF901F
:1025C0009F908F907F906F905F904F900C94E01051
:1025D0004F925F926F927F928F929F92AF92BF9233
:1025E000EF920F931F934B015C0129013A0162ECBA
:1025F00071E08EEA95E00E940F12B501A4018EEA07
:1026000095E00E940C126FEC71E08EEA95E00E945A
:102610000F12B301A2018EEA95E00E940C1267ED41
:1026200071E08EEA95E00E940F12802F90E00E94E8
:10263000FA10E02E93018201B501A40180E197E038
:102640000E94A1121F910F91EF90BF90AF909F90A9
:102650008F907F906F905F904F9008954F925F9210
:102660006F927F928F929F92AF92BF92EF920F9351
:102670001F93CF93DF934A015B013901EC0122964E
:10268000CE010E94630D60E0CE010E941F0DB301D8
:10269000A801CE010E940C1264EB71E0CE010E94F1
:1026A0000F1261E0CE010E941F0DB501A401CE0101
:1026B0000E940C126FEDCE010E9461046DEB71E07F
:1026C000CE010E940F126E2D70E0CE01DF91CF91EE
:1026D0001F910F91EF90BF90AF909F908F907F9040
:1026E0006F905F904F900C94E0104F925F926F92BA
:1026F0007F928F929F92AF92BF92EF920F931F9310
:102700004B015C0129013A0162EC71E08EEA95E02F
:102710000E940F12B501A4018EEA95E00E940C12EE
:1027200060EE71E08EEA95E00E940F12B301A20103
:102730008EEA95E00E940C1267ED71E08EEA95E05A
:102740000E940F12802F90E00E94FA10E02E930159
:102750008201B501A40180E197E00E942E131F9130
:102760000F91EF90BF90AF909F908F907F906F9060
:102770005F904F900895CF93DF93EC012296CE01A6
:102780000E94630D60E0CE010E941F0D68EE71E0B3
:10279000CE01DF91CF910C940F1280E197E00E945F
:1027A000BB1364EF71E080E090E00C942304CF93BE
:1027B000DF93EC012296CE010E94630D60E0CE0112
:1027C0000E941F0D64EF71E0CE01DF91CF910C9458
:1027D0000F12CF93DF93EC012296CE010E94630D7E
:1027E00060E0CE010E941F0D63E072E0CE01DF9138
:1027F000CF910C940F12CF93DF93EC01229620E03F
:1028000042E060E1CE010E94F60DCE010E94630D10
:1028100060E0CE010E941F0D6EE072E0CE010E94CA
:102820000F1261E0CE010E941F0D6AE172E0CE013D
:10283000DF91CF910C940F1285ED8093BC008091B5
:102840007A0590917B05A0917C05B0917D05079656
:10285000A11DB11D23E0B695A795979587952A955B
:10286000D1F72091BC0024FD03C010927805089593
:1028700040917A0550917B0560917C0570917D05B2
:10288000452B462B472B69F30097A105B10541F075
:1028900025E32A95F1F700000197A109B109E1CFDD
:1028A000809179050C94A8020E94512B0F931F93DD
:1028B000CF93DF93EC0188819981009759F02A81A9
:1028C0003B812617370730F081E0DF91CF911F91D0
:1028D0000F9108958B016F5F7F4F0E94942A00979C
:1028E00059F0998388831B830A832C813D81232B94
:1028F00059F7FC011082E8CF80E0E7CFCF93DF9358
:10290000EC0188819981009711F00E940B2A1982AD
:1029100018821D821C821B821A82DF91CF9108953A
:10292000CF92DF92EF92FF920F931F93CF93DF939B
:10293000CDB7DEB7A1970FB6F894DEBF0FBECDBFFF
:102940007C01CB01BA01F70111821082138212823D
:10295000158214828E010F5F1F4F23E045E00E9415
:10296000E4226C01009771F0FC0101900020E9F76E
:1029700031978F01081B190BB801C7010E9456142B
:10298000811112C0C7010E947E14A1960FB6F8945F
:10299000DEBF0FBECDBFDF91CF911F910F91FF9092
:1029A000EF90DF90CF900895F70115830483B6016F
:1029B000808191810E945F2BE8CFFC018081918111
:1029C000009711F00C940B2A08954F925F926F922A
:1029D0007F928F929F92AF92BF92EF92FF921F933E
:1029E000CF93DF9300D000D000D0CDB7DEB77C010D
:1029F0002A013B01122F0E9455044B015C0182E029
:102A0000E80EF11CC7010E94630D60E0C7010E943F
:102A10001F0D8091580290915902A0915A02B091D5
:102A20005B02881A990AAA0ABB0AE7E98E16910482
:102A3000A104B10484F00E9455046093580270937D
:102A4000590280935A0290935B028091570291E061
:102A5000892780935702B301A201CE0101960E94FB
:102A6000901480915702882319F1BE016F5F7F4F48
:102A7000C7010E94680467EB71E0C7010E940F1252
:102A8000CE0101960E94DD1426960FB6F894DEBFA3
:102A90000FBECDBFDF91CF911F91FF90EF90BF9000
:102AA000AF909F908F907F906F905F904F90089520
:102AB00011111F5F8D819E818630910508F01F5F87
:102AC000212F30E02817390730F489819A81280FA7
:102AD000391F892B21F41092B80428EB34E080E2EE
:102AE000F9018083C2CFCF92DF92EF92FF920F93D2
:102AF0001F93CF93DF93EB017B0124E0E20EF11CE7
:102B00008B016C01C61AD70AC601800F911F0E9463
:102B10005D26F80181938F01EE15FF05A9F7CE011F
:102B2000DF91CF911F910F91FF90EF90DF90CF90A9
:102B30000895EF92FF920F931F93CF93DF93CDB73A
:102B4000DEB728970FB6F894DEBF0FBECDBF7C016D
:102B5000062F10E0BE016B5F7F4FC801880F991FE1
:102B6000880F991F0E9473150F5F1F4F000F111FD1
:102B7000000F111FBE016F5F7F4FC8010E947315C8
:102B80008D819E81AF81B88549815A816B817C811D
:102B9000F701408351836283738384839583A68383
:102BA000B783BE016B5F7F4FC80104960E94731507
:102BB000BE016F5F7F4FC80108960E9473158D811B
:102BC0009E81AF81B88549815A816B817C81F701F3
:102BD000408751876287738784879587A687B787E1
:102BE00028960FB6F894DEBF0FBECDBFDF91CF9110
:102BF0001F910F91FF90EF9008959F92AF92BF9217
:102C0000CF92DF92EF92FF920F931F93CF93DF93B8
:102C10005C017B018B01D0E0C0E0F80191908F0155
:102C20006501CC0EDD1EC6010E945D26981621F0BE
:102C3000692DC6010E9465262196C430D10569F729
:102C4000C701DF91CF911F910F91FF90EF90DF901F
:102C5000CF90BF90AF909F9008951F920F920FB6A4
:102C60000F9211242F933F934F935F936F937F9312
:102C70008F939F93AF93BF93EF93FF938091B9008E
:102C8000887F803609F44AC0F0F5883209F4A7C07D
:102C900018F5803109F49BC0B8F4882309F4F9C011
:102CA000883009F494C0FF91EF91BF91AF919F914B
:102CB0008F917F916F915F914F913F912F910F90E5
:102CC0000FBE0F901F901895883109F488C080328C
:102CD00051F78093760514C0803409F49DC040F408
:102CE0008033B9F38833F9F68093760585ECB0C06C
:102CF000803509F485C0883509F496C0883499F682
:102D00000E941C14D0CF883909F48CC038F588375C
:102D100029F050F4883611F0803729F683E080934B
:102D200078051092510557C0883809F47BC0803966
:102D300019F0803809F0B7CF80915105803208F042
:102D400071C0E091510581E08E0F80935105809113
:102D5000BB00F0E0EF5CFA4F80833DC0803B39F070
:102D6000E0F4803A09F479C0883A09F09CCF84E015
:102D70008093780510922E0510922D05E0912B0579
:102D8000F0912C05099580912D0581110FC081E0EE
:102D900080932D0510920B0509C0803C09F4A6CF45
:102DA000883C09F4A3CF883B09F07DCFE0912E0544
:102DB00081E08E0F80932E05F0E0E55FFA4F808171
:102DC0008093BB0090912E0580912D0529C08091A4
:102DD00053058093BB0085EC8093BC0064CF909139
:102DE000750580917405981758F5E091750581E097
:102DF0008E0F80937505F0E0EC5AFA4F8081E9CF91
:102E0000E091750581E08E0F809375058091BB0080
:102E1000F0E0EC5AFA4F808390917505809174052B
:102E20009817C8F285E8D8CFE091750581E08E0F3C
:102E3000809375058091BB00F0E0EC5AFA4F8083D7
:102E40008091770581115CCF81E08093520584EAFF
:102E50008093BC001092780526CF85EC8093BC004F
:102E60001092780580915105803230F4E09151053F
:102E7000F0E0EF5CFA4F10826091510570E0E09154
:102E80002F05F091300581E395E0099510925105E9
:102E90000ACF1092760534CF1F920F920FB60F9281
:102EA00011242F933F938F939F93AF93BF93809160
:102EB000E0049091E104A091E204B091E304309128
:102EC000DF0423E0230F2D3758F50196A11DB11D16
:102ED0002093DF048093E0049093E104A093E20444
:102EE000B093E3048091E4049091E504A091E6049A
:102EF000B091E7040196A11DB11D8093E404909365
:102F0000E504A093E604B093E704BF91AF919F91CD
:102F10008F913F912F910F900FBE0F901F9018959A
:102F200026E8230F0296A11DB11DD2CF1F920F924A
:102F30000FB60F9211242F933F934F935F936F938C
:102F40007F938F939F93AF93BF93EF93FF938EEAFB
:102F500095E00E94F404FF91EF91BF91AF919F9192
:102F60008F917F916F915F914F913F912F910F9032
:102F70000FBE0F901F9018951F920F920FB60F92D1
:102F800011242F938F939F93EF93FF93E091BE05AE
:102F9000F091BF058081E091C405F091C50582FDE7
:102FA0001BC090818091C7058F5F8F732091C805EA
:102FB000821741F0E091C705F0E0E255FA4F958F96
:102FC0008093C705FF91EF919F918F912F910F9063
:102FD0000FBE0F901F9018958081F4CF1F920F9213
:102FE0000FB60F9211242F933F934F935F936F93DC
:102FF0007F938F939F93AF93BF93EF93FF9383E060
:103000000E943302892B19F481E08093DA0482E074
:103010000E943302892B19F481E08093DB0485E060
:103020000E943302892B19F481E08093DC0484E050
:103030000E943302892B19F481E08093DD0486E03D
:103040000E943302892B19F481E08093DE04FF9102
:10305000EF91BF91AF919F918F917F916F915F9110
:103060004F913F912F910F900FBE0F901F90189589
:103070008091CD068F3351F018F48F3149F00895C7
:103080008F3541F08F37D9F78CE008958AE00895A5
:1030900089E008958BE00895CF93DF93EC0160E021
:1030A00087E00E94C902E1E5F2E0E491E883EDE304
:1030B000F2E0E491F0E0EE0FFF1FE45DFD4F85913B
:1030C00094919A8389831B861D861C861A8619868D
:1030D00018861F821E821D821C821B82DF91CF9167
:1030E0000895CF93DF93EC01198218821B821A8214
:1030F0001D821C8268E070E00E945614811105C098
:10310000CE01DF91CF910C947E1488E090E09D83F6
:103110008C8368E272E088819981DF91CF910C9471
:103120005F2BBF92CF92DF92EF92FF920F931F938C
:10313000CF93DF931092A5051092A40588EE93E03B
:10314000A0E0B0E08093A6059093A705A093A80502
:10315000B093A90526E131E03093A3052093A205A1
:103160001092B1051092B0058093B2059093B3050B
:10317000A093B405B093B50588E291E09093AF05B4
:103180008093AE0585EC90E09093BB058093BA05E3
:1031900084EC90E09093BD058093BC0580EC90E0BA
:1031A0009093BF058093BE0581EC90E09093C1059C
:1031B0008093C00582EC90E09093C3058093C20594
:1031C00086EC90E09093C5058093C4051092C705E6
:1031D0001092C8051092C9051092CA0580E5809327
:1031E0004B0610924C061092520610925306109203
:1031F00056061092580682E090E0A0E0B0E080937E
:10320000590690935A06A0935B06B0935C06109201
:10321000700610927A06109279068AE391E09093F4
:1032200078068093770610927C068AE097E00E94E9
:1032300071188EED96E00E944C1880EB96E00E948B
:103240004C181092DC061092DD068CEC0E941C0FCC
:10325000882331F040E064EB80EB96E00E94B00EF2
:1032600080EB96E00E945D0E8093BF06C12CD12CAE
:103270007601C39411E0D091DD06D11167C180EFD2
:103280000E941C0F882309F461C1B12CC0E080EBBF
:1032900096E00E945D0E082F80EB96E00E945D0E86
:1032A000002309F4A8C0882309F4A5C01092DC0605
:1032B0008AE591E09093110780931007109215070B
:1032C0001092140786E491E09093130780931207FD
:1032D000109222078FEF80932107109220071092FF
:1032E000230787E280931D0710921E0710921F0785
:1032F00010921C0710921B0784E08093240782E041
:103300008093250781E08093260780E1809327073B
:1033100080E28093280780E48093290780E88093E7
:103320002A0750E040E063E082E197E00E94F80C59
:103330001092A6061092A7061092A8061092A9064F
:103340001092AA061092AB061092AC061092AD062F
:103350001092AE061092AF06C12CD12C80E8E82E58
:103360008FE3F82EC0929E06D0929F06E092A006B0
:10337000F092A1061092A2061092A3061092A40643
:103380001092A50670E060E08EE996E00E94900F32
:10339000C0929606D0929706E0929806F09299060F
:1033A00010929A0610929B0610929C0610929D060F
:1033B00070E060E086E996E00E94900F84E097E07C
:1033C0000E9471188EEF96E00E94711888EF96E0C7
:1033D0000E94711882EF96E00E9471188CEE96E0C0
:1033E000DF91CF911F910F91FF90EF90DF90CF90E1
:1033F000BF900C947118EC2FE695E695E695F0E0F9
:103400003C2F3770E055F94F24A101118DC0811177
:1034100090C08091DC068C1709F488C08C1708F4E2
:1034200087C0822F90E0032E02C0959587950A945D
:10343000E2F7482F417080FF7BC0D701C60104C06E
:10344000880F991FAA1FBB1F3A95D2F7822B84A31E
:10345000042F602F80EB96E00E94810ECF5FC03476
:1034600009F015CFB092DC06B11002C01093DD0652
:1034700080EF0E941C0F882309F41ACF80EB96E09E
:103480000E945D0EC82F80EB96E00E945D0ECC235B
:1034900011F081110DCFED2FE695E695E695F0E060
:1034A000EC52F94F608170E08D2F877002C07595E6
:1034B00067958A95E2F7617080EB96E00E94810E35
:1034C000DF5FD034D9F688E0E4EDF6E0A1ECB6E0B9
:1034D00001900D928A95E1F70E94E90F882309F483
:1034E000E7CE0E9438188093D20685E50E941C0F13
:1034F000882331F040E064EB80EB96E00E94B00E50
:1035000080EB96E00E945D0E8093D3060E943818EF
:103510009091BE06981710F48093BE068091C00665
:103520008F5F8093C006A7CE402F87CF41E085CF25
:10353000BC2ED701C60104C0880F991FAA1FBB1F4C
:103540003A95D2F78095822384A383CF1092DC062C
:103550001092DD06ADCECF93DF93CDB7DEB7A29745
:103560000FB6F894DEBF0FBECDBF789484B58260ED
:1035700084BD84B5816084BD85B5826085BD85B517
:10358000816085BD80916E00816080936E00109295
:103590008100809181008260809381008091810010
:1035A00081608093810080918000816080938000A1
:1035B0008091B10084608093B1008091B0008160FF
:1035C0008093B00080917A00846080937A0080912B
:1035D0007A00826080937A0080917A008160809383
:1035E0007A0080917A00806880937A001092C100FE
:1035F00061E08BE00E94C90260E08BE00E945C0207
:1036000061E08CE00E94C90260E08CE00E945C02F4
:1036100061E089E00E94C90261E089E00E945C02E9
:1036200061E088E00E94C90260E088E00E945C02DC
:10363000E091BE05F091BF0582E08083E091BA057C
:10364000F091BB051082E091BC05F091BD058FECB7
:1036500080831092C605E091C205F091C30586E013
:103660008083E091C005F091C105808180618083F5
:10367000E091C005F091C105808188608083E09170
:10368000C005F091C105808180688083E091C0050C
:10369000F091C10580818F7D808380E197E00E9459
:1036A000FB1368EE73E080E090E00E942304109228
:1036B000E9061092EB061092EA061092E8061092C4
:1036C000E7061092E6061092E5061092E4061092C4
:1036D000E3061092E2061092E1066CE6C62E64E064
:1036E000D62EAA24A3948091EB06811106C08EEDFC
:1036F00096E00E94E40E811116C11092E906109224
:10370000EB061092EA0619821A821B821C821D8225
:103710001E821F82188619861A861B861C861D86A5
:103720001E861F86188A60E0CE0101960E949915B8
:1037300061E372E08EEA95E00E940F12CE010196DD
:103740000E941112BE016F5F7F4F8EE996E00E94CA
:10375000900F64E0CE0101960E94991566E372E035
:103760008EEA95E00E940F12CE0101960E9411127E
:10377000BE016F5F7F4F86E996E00E94900F109226
:10378000DA041092DB041092DC041092DD04109233
:10379000DA0462E083E00E94C90262E082E00E94F3
:1037A000C90262E085E00E94C90262E084E00E94F2
:1037B000C90262E086E00E94C90262E08EE00E94D7
:1037C000C90262E081E10E94C902809168008460C0
:1037D0008093680080916D008C6780936D0081E01C
:1037E00090E09093D9048093D804BE016F5E7F4F20
:1037F00080E290E00E947315C988DA88EB88FC8823
:10380000C092A606D092A706E092A806F092A9065A
:103810006BE372E08EEA95E00E940F12C701B601D9
:103820000E94F711BE016F5E7F4F84E290E00E941C
:103830007315C988DA88EB88FC88C092AA06D092F2
:10384000AB06E092AC06F092AD0663E472E08EEA5D
:1038500095E00E940F12C701B6010E94F71152E0D5
:10386000452E512C66246394F090DE04D090DD0444
:10387000E090DC04C090DB04B090DA040E945504B0
:10388000AB01BC0180916C0490916D04A0916E0419
:10389000B0916F0488539F4FAF4FBF4F8417950768
:1038A000A607B7070CF0E6C0BB2009F4B3C086E258
:1038B00092E00E94E71042E0242E312C1092DA04AC
:1038C0001092DB041092DC041092DD041092DE04EE
:1038D00064E670E080E090E00E94230481E10E94B1
:1038E0003302892B09F0C9C06092AE068EE00E94B7
:1038F0003302892B09F0C4C06092AF06E091D8046E
:10390000F091D9043197E830F10508F070C1E5571E
:10391000F34E0C94CC26431D2A1EFF1EB71F6E20AB
:103920007B214A228B2240E060EF8EED96E00E94E0
:10393000B00E01E0E12CB12C11E08EED96E00E947A
:103940005D0EF82E8EED96E00E945D0E21E0F212E3
:103950002AC0813009F046C0113408F4CECEB092AE
:10396000E906B11002C0A092EB068091E10688231F
:1039700009F4C3CEA1EEB6E0E4E6F4E08D918193C4
:10398000CE16DF06D9F780916404883209F0ABCEF9
:1039900067E084E694E00E94460E90916B048917DC
:1039A00009F4A1CEB0CEEE2DF0E0F81211C0809156
:1039B000E9061817A8F4DF01A252B94F13968C91AB
:1039C000802381F4F12C193010F41093EA06B12E03
:1039D000E252F94F8381902F9095892383830BC006
:1039E0008113F0CFEE2DF0E0E252F94F8381802B6E
:1039F0008383FF24F3946F2D8EED96E00E94810E59
:103A00001F5F000F11F4E39401E037E03E1508F06A
:103A100094CFA2CFCC2041F08BE492E00E94E7103B
:103A200033E0232E312C4ACFDD2041F088E192E0B3
:103A30000E94E71025E0222E312C40CFEE2041F0ED
:103A40008DE492E00E94E71094E0292E312C36CFCD
:103A5000FF2041F08FE492E00E94E710222423949B
:103A6000312C2CCF40936C0450936D0460936E0402
:103A700070936F04312C212C31CF1092AE0636CFCB
:103A80001092AF063BCF0E9423104B015C0161E016
:103A900089E00E945C0260E088E00E945C0262E3D0
:103AA00070E080E090E00E9423048FE00E94050314
:103AB000BC0190E080E00E943E2520919E0630915E
:103AC0009F064091A0065091A1060E949F2520913B
:103AD000A2063091A3064091A4065091A5060E942B
:103AE000D3266B017C0100E0AC019B01C501B40150
:103AF0000E94751360E089E00E945C0261E088E04A
:103B00000E945C0262E370E080E090E00E94230487
:103B100080E10E9405032091AF06211132C0BC0153
:103B200090E080E00E943E25209196063091970615
:103B300040919806509199060E949F2520919A06DF
:103B400030919B0640919C0650919D060E94D32681
:103B50009B01AC016091AA067091AB068091AC0606
:103B60009091AD060E94E02718165CF461E08CE0AD
:103B70000E945C0288E090E09093D9048093D8047E
:103B800036C08091AE0681111DC02091A6063091ED
:103B9000A7064091A8065091A906C701B6010E9448
:103BA000392587FF0FC061E089E00E945C0260E078
:103BB00088E00E945C0261E08BE00E945C0287E08A
:103BC00090E0DACF93E029163104B9F13CF4B2E089
:103BD0002B163104C9F0A1E0B0E00CC1E4E02E16D0
:103BE000310409F4D6C0F5E02F163104A1F7E0E066
:103BF000F0E0EF2B09F438CE0E94E004882309F4AA
:103C00002ECE0E9400002BCE61E089E00E945C0273
:103C100060E088E00E945C0280E197E00E94E91386
:103C200064EF71E080E090E00E94230423E030E044
:103C30003093D9042093D804DACF80E197E00E9432
:103C4000D71364EF71E080E090E00E94230485E0E8
:103C500090E092CF0E942310698F7A8F8B8F9C8F78
:103C600060E089E00E945C0261E088E00E945C0202
:103C700062E370E080E090E00E94230480E10E9413
:103C80000503BC0190E080E00E943E25209196064D
:103C90003091970640919806509199060E949F2571
:103CA00020919A0630919B0640919C0650919D066A
:103CB0000E94D3266B017C0161E089E00E945C02D6
:103CC00060E088E00E945C0262E370E080E090E0E7
:103CD0000E9423048FE00E9405039E8F8D8F8090A9
:103CE0009E0690909F06A090A006B090A10680919D
:103CF000A2069091A306A091A406B091A5068F8F6D
:103D000098A3A9A3BAA300E0A7019601698D7A8DB3
:103D10008B8D9C8D0E94E8128091AF0681110FC09F
:103D2000A70196016091AA067091AB068091AC063E
:103D30009091AD060E94E02718160CF417CF8091E1
:103D4000AE0681111DC0AD8DBE8DBD0190E080E03D
:103D50000E943E25A50194010E949F252F8D38A128
:103D600049A15AA10E94D3262091A6063091A70608
:103D70004091A8065091A9060E94392587FD13CFCE
:103D8000B3E02B16310451F14CF4F2E02F1631045C
:103D900081F05092D9044092D80429CF24E0221611
:103DA000310409F418CF35E02316310409F41FCF8C
:103DB000F0CF60E089E00E945C0261E088E00E9450
:103DC0005C0280E197E00E94E91364EF71E080E01B
:103DD00090E00E94230484E090E0CECE80E197E062
:103DE0000E94D71364EF71E080E090E00E9423040A
:103DF000A6E0B0E0B093D904A093D804F8CE8091A7
:103E00008C04811123C019821A821B821C821D829C
:103E10001E821F82188619861A861B861C861D869E
:103E20001E861F86188A60E0CE0101960E949915B1
:103E300089819A81AB81BC818093880490938904A5
:103E4000A0938A04B0938B0460928C0480918004C8
:103E5000811122C0109270041092710410927204A9
:103E600010927304109274041092750410927604E8
:103E700010927704109278041092790410927A04C8
:103E800010927B0410927C0410927D0410927E04A8
:103E900010927F04609280040E942310B1E02B16E0
:103EA000310409F0A4CE0E94CD13409188045091B2
:103EB000890460918A0470918B0480E794E00E94E9
:103EC0004D0F882391F164E774E090E080E00E9458
:103ED000FD1560E774E084E090E00E94FD156CE75A
:103EE00074E088E090E00E94FD1568E774E08CE0E3
:103EF00090E00E94FD1560E774E08EE996E00E9474
:103F0000900F8091780490917904A0917A04B091F7
:103F10007B048093880490938904A0938A04B093CF
:103F20008B043092D9042092D80419821A821B8201
:103F30001C821D821E821F82188619861A861B8685
:103F40001C861D861E861F86188A60E0CE0101969B
:103F50000E94991589859A85AB85BC8580938804D4
:103F600090938904A0938A04B0938B0440CE8091EF
:103F7000B004811123C019821A821B821C821D8207
:103F80001E821F82188619861A861B861C861D862D
:103F90001E861F86188A64E0CE0101960E9499153C
:103FA00089819A81AB81BC818093AC049093AD04EC
:103FB000A093AE04B093AF046092B0048091A404C7
:103FC000811122C0109294041092950410929604CC
:103FD00010929704109298041092990410929A04E7
:103FE00010929B0410929C0410929D0410929E04C7
:103FF00010929F041092A0041092A1041092A204A7
:104000001092A3046092A4040E9423102A942328EF
:1040100009F0EDCD0E94CD134091AC045091AD0458
:104020006091AE047091AF0484E994E00E944D0F5A
:10403000882391F168E974E080E190E00E94FD1529
:1040400064E974E084E190E00E94FD1560EA74E0A8
:1040500088E190E00E94FD156CE974E08CE190E04D
:104060000E94FD1564E974E086E996E00E94900FD5
:1040700080919C0490919D04A0919E04B0919F0416
:104080008093AC049093AD04A093AE04B093AF04BE
:104090005092D9044092D80419821A821B821C8241
:1040A0001D821E821F82188619861A861B861C8610
:1040B0001D861E861F86188A64E0CE0101960E9426
:1040C000991589859A85AB85BC858093AC049093BE
:1040D000AD04A093AE04B093AF0489CD8091C30426
:1040E000811115C0BE016F5F7F4F80E290E00E949A
:1040F000731589819A81AB81BC818093BF049093B1
:10410000C004A093C104B093C2046092C3040E948F
:104110002310F3E02F16310409F4BCC00CF05FC08B
:1041200031E02316310409F474C082E0281631040A
:1041300009F499C07090BE048090BF049090C004B0
:10414000A090C104B090C2040E9455046B017C0190
:1041500082E197E00E94630D60E082E197E00E94B7
:104160001F0D8091BA049091BB04A091BC04B09142
:10417000BD04C81AD90AEA0AFB0AE7E9CE16D10437
:10418000E104F1047CF00E9455046093BA0470933A
:10419000BB048093BC049093BD048091B904862530
:1041A0008093B904B501A401CE0101960E94901438
:1041B0008091B904882309F483C0BE016F5F7F4FEB
:1041C00082E197E00E94680464EB71E082E197E08D
:1041D0000E940F12CE0101960E94DD1408CD94E0DA
:1041E0002916310469F0A5E02A16310409F0A2CF9E
:1041F0008091BE04833008F05CC08F5F8093BE0462
:104200008091BE04882309F457C081508093BE0476
:10421000EECC0E94CD138091BF049091C004A09178
:10422000C104B091C2048D8B9E8BAF8BB88FBE0141
:104230006B5E7F4F80E290E00E94FD158091BF048D
:104240009091C004A091C104B091C2048093A606CD
:104250009093A706A093A806B093A9063092D9041C
:104260002092D804C4CC20E030E040E85FE36091C5
:10427000BF047091C0048091C1049091C2040E9457
:10428000D3266093BF047093C0048093C1049093BD
:10429000C204ADCC20E030E040E85FE36091BF04B1
:1042A0007091C0048091C1049091C2040E94D226F2
:1042B000E8CF1092BE04A4CFB2E0B093BE0497CC76
:1042C000711073942D813E812630310508F073946E
:1042D000872D90E08217930730F429813A81820F6D
:1042E000931F232B21F41092B80488EB94E020E272
:1042F000DC012C9362CF8091D004811115C0BE01E6
:104300006F5F7F4F84E290E00E94731589819A81EC
:10431000AB81BC818093CC049093CD04A093CE0458
:10432000B093CF046092D0040E9423107B018C01D3
:10433000B3E02B16310409F458C0C4F4F1E02F1691
:10434000310469F122E02216310409F473C040916E
:10435000CC045091CD046091CE047091CF04209193
:10436000CB0480E197E00E94E51441CC34E02316B1
:10437000310461F085E02816310449F78091CB04BF
:10438000833008F080C08F5F8093CB048091CB0492
:10439000882309F47BC081508093CB0428CC0E94F1
:1043A000CD138091CC049091CD04A091CE04B09116
:1043B000CF04898B9A8BAB8BBC8BBE016F5E7F4F1A
:1043C00084E290E00E94FD158091CC049091CD0490
:1043D000A091CE04B091CF048093AA069093AB062F
:1043E000A093AC06B093AD06D4CC6091CB0470E042
:1043F00090E080E00E9440259B01AC01505860E0B5
:1044000070E080E291E40E94E5279B01AC0160919D
:10441000CC047091CD048091CE049091CF040E9481
:10442000D2266093CC047093CD048093CE049093F5
:10443000CF04DDCBC090CC04D090CD04E090CE046E
:10444000F090CF0420E030E040E852E4C701B6012C
:104450000E94392587FFCBCB6091CB0470E090E0C0
:1044600080E00E9440259B01AC01505860E070E064
:1044700080E291E40E94E5279B01AC01C701B601EF
:104480000E94D326CECF1092CB0480CF92E090939F
:10449000CB04ADCB0E9423104B015C018FE00E9446
:1044A0000503BC0190E080E00E943E2520919E061D
:1044B00030919F064091A0065091A1060E949F2531
:1044C0002091A2063091A3064091A4065091A50622
:1044D0000E94D3266B017C0101E0AC019B01C50168
:1044E000B4010E9475138091AE0681110FC0A7011F
:1044F00096016091A6067091A7068091A8069091FA
:10450000A9060E94E02718160CF471CB60E08BE03E
:104510000E945C0260CB0E9423104B015C0180E191
:104520000E940503BC0190E080E00E943E2520919E
:1045300096063091970640919806509199060E94F0
:104540009F2520919A0630919B0640919C065091A0
:104550009D060E94D3266B017C0101E0AC019B010A
:10456000C501B4010E94E8128091AF0681110FC00D
:10457000A70196016091AA067091AB068091AC06E6
:104580009091AD060E94E02718160CF430CB60E045
:104590008CE00E945C02FDCB8CEE96E00E94DD1464
:1045A00082EF96E00E94DD1488EF96E00E94DD1411
:1045B0008EEF96E00E94DD1484E097E00E94DD1407
:1045C0008AE097E00C94DD14EF920F931F93CF9342
:1045D000DF93E80134E047FD34E1042E000C550B75
:1045E00057FF03C0519541955109E32E022F242F07
:1045F000AE010E940223CE01DF91CF911F910F9156
:10460000EF900895A9E0B0E0E8E0F3E20C94792699
:104610006A01F22EB02E102FFBE3AF2EA01608F485
:104620001BE31F5F012F27E0AE014F5F5F4F0E942A
:104630006124BC018981982F9970913009F43FC0A1
:104640009BE2E1FC04C09E2D9170E0FC3AC05E2D1F
:104650005071E82FE87083FF46C084E0911101C0DB
:1046600083E0EF2DE81B8F1508F0E0E0D6018E2FD8
:1046700020E2552351F1992329F0D6019C93C601DC
:1046800001966C0196012D5F3F4FE2FE24C08EE43F
:10469000D6018C9391E411969C93119712968C936A
:1046A000D9018E2F90E281111BC0E20FF32FF11D73
:1046B00010828EEF9FEF2996ECE00C9495269DE2F8
:1046C000C6CF90E2C4CF2D9381508111FCCFCE0E86
:1046D000D11CE0E0D0CF8EE6D6018C9391E6DBCF03
:1046E0009D938150E0CF482F447082FF3DC084E00D
:1046F000911101C083E08F1510F4EF2DE81BD60156
:104700008E2F20E2552309F1992329F0D6019C939D
:10471000C60101966C0196012D5F3F4FE2FE1BC062
:1047200089E4D6018C938EE411968C93119786E4DC
:1047300012968C93D9018E2F90E2882309F4B5CF7D
:104740009D938150FACF2D9381508111FCCFCE0ED5
:10475000D11CE0E0D9CF89E6D6018C938EE6119684
:104760008C93119786E6E4CF9B0177FF02C030E07F
:1047700020E0A1E0B0E0911102C0B0E0A0E0F901BA
:104780003196AE0FBF1F8B2C912CBB2009F461C05A
:104790005401EFEFAE1ABE0AAA0DBB1DFA161B0696
:1047A00019F014F04F2D4A1B511188C0E3FC59C079
:1047B0007601A42FB0E2A1114FC0C40ED11C9923E1
:1047C00009F45BC040E0D6011196F60190836D01BB
:1047D000552309F448C0012F060F9A81582F5071B4
:1047E00084FF03C0913309F4015010160CF047C048
:1047F000093008F008E0EEE2FE2E5B01A01AB108D5
:1048000085019194819491082F3F320729F4D601B4
:10481000FC92F60131966F016217730794F102174B
:1048200013077CF5DB01A21BB30BAA24A394B12CC4
:10483000AC0EBD1EAA0DBB1D11968C9121503109E5
:10484000D601119628153905F4F0F60180836D0123
:10485000DBCFB12CA12CA0CFF701B1937F01A150E8
:10486000AACF9111B0CFD601942F50E302C05D932F
:1048700091509111FCCFC40ED11C40E0ACCF01E0AF
:10488000BACF80E3DBCF6217730731F4963388F435
:10489000953311F4552369F0F6018083FD01842FCF
:1048A00090E2811108C0A40FB11D1C9290E080E03D
:1048B00002CF81E3F1CF91938150F3CF911183CF58
:1048C0008ACF283008F027E03327DA01990F311D0D
:1048D00087FD916000966105710539F432602E5FA5
:1048E0003D9330E32A95E1F708959F3F30F08038FB
:1048F0007105610509F03C5F3C5F3D93913008F024
:104900008068911DDF93CF931F930F93FF92EF92D7
:10491000192F987F9695E92F96959695E90FFF2781
:10492000EC5BFE4F99273327EE24FF24A701E70114
:1049300005900894079428F4360FE71EF81E491FC7
:10494000511D660F771F881F991F0694A1F70590C8
:10495000079428F4E70EF81E491F561FC11D770F54
:10496000881F991F661F0694A1F70590079428F4E5
:10497000F80E491F561FC71FD11D880F991F661FAC
:10498000771F0694A1F70590079420F4490F561F4E
:10499000C71FD81F990F661F771F881F0694A9F796
:1049A00084911095177041F0D695C7955795479506
:1049B000F794E7941A95C1F7EAEEF0E06894159041
:1049C000159135916591959105907FE27395E11868
:1049D000F10A430B560BC90BD009C0F7E10CF11ECD
:1049E000431F561FC91FD01D7EF4703311F48A95E2
:1049F000E6CFE894015030F0080F0AF400270217C0
:104A000008F4202F2395022F7A3328F079E37D9341
:104A10002A95E9F710C07D932A9589F60694979513
:104A20006795379517951794E118F10A430B560BC4
:104A3000C90BD00998F023957E9173957A3308F0CD
:104A400070E37C932013B8F77E9170617D9330F012
:104A5000839571E37D9370E32A95E1F71124EF903C
:104A6000FF900F911F91CF91DF91992787FD90952E
:104A700008950E947B2508F481E00895E89409C018
:104A800097FB3EF490958095709561957F4F8F4F81
:104A90009F4F9923A9F0F92F96E9BB279395F69597
:104AA000879577956795B795F111F8CFFAF4BB0F15
:104AB00011F460FF1BC06F5F7F4F8F4F9F4F16C079
:104AC000882311F096E911C0772321F09EE8872F03
:104AD000762F05C0662371F096E8862F70E060E0BF
:104AE0002AF09A95660F771F881FDAF7880F969538
:104AF000879597F90895990F0008550FAA0BE0E8DC
:104B0000FEEF16161706E807F907C0F0121613068F
:104B1000E407F50798F0621B730B840B950B39F4CF
:104B20000A2661F0232B242B252B21F408950A2635
:104B300009F4A140A6958FEF811D811D08950E9463
:104B4000B2250C9423260E94152638F00E941C26BC
:104B500020F0952311F00C940C260C9412261124AD
:104B60000C9457260E94342670F3959FC1F3950F3D
:104B700050E0551F629FF001729FBB27F00DB11DE1
:104B8000639FAA27F00DB11DAA1F649F6627B00D71
:104B9000A11D661F829F2227B00DA11D621F739F5A
:104BA000B00DA11D621F839FA00D611D221F749F68
:104BB0003327A00D611D231F849F600D211D822FAF
:104BC000762F6A2F11249F5750409AF0F1F08823D6
:104BD0004AF0EE0FFF1FBB1F661F771F881F915003
:104BE0005040A9F79E3F510580F00C940C260C9480
:104BF00057265F3FE4F3983ED4F386957795679503
:104C0000B795F795E7959F5FC1F7FE2B880F911D2C
:104C10009695879597F9089597F99F6780E870E0D2
:104C200060E008959FEF80EC089500240A94161622
:104C3000170618060906089500240A94121613068A
:104C4000140605060895092E0394000C11F4882318
:104C500052F0BB0F40F4BF2B11F460FF04C06F5F34
:104C60007F4F8F4F9F4F089557FD9058440F551F0A
:104C700059F05F3F71F04795880F97FB991F61F0DE
:104C80009F3F79F087950895121613061406551F55
:104C9000F2CF4695F1DF08C0161617061806991FC1
:104CA000F1CF86957105610508940895E894BB27B6
:104CB00066277727CB0197F90895F999FECF92BD22
:104CC00081BDF89A992780B50895262FF999FECFCE
:104CD0001FBA92BD81BD20BD0FB6F894FA9AF99A19
:104CE0000FBE019608952F923F924F925F926F925E
:104CF0007F928F929F92AF92BF92CF92DF92EF926C
:104D0000FF920F931F93CF93DF93CDB7DEB7CA1BEC
:104D1000DB0B0FB6F894DEBF0FBECDBF09942A8817
:104D2000398848885F846E847D848C849B84AA84BF
:104D3000B984C884DF80EE80FD800C811B81AA814C
:104D4000B981CE0FD11D0FB6F894DEBF0FBECDBF17
:104D5000ED010895A1E21A2EAA1BBB1BFD010DC097
:104D6000AA1FBB1FEE1FFF1FA217B307E407F5071B
:104D700020F0A21BB30BE40BF50B661F771F881FF7
:104D8000991F1A9469F760957095809590959B018D
:104D9000AC01BD01CF010895EE0FFF1F0590F49106
:104DA000E02D09945058BB27AA270E94EA260C94AC
:104DB00023260E94152638F00E941C2620F039F484
:104DC0009F3F19F426F40C9412260EF4E095E7FBAD
:104DD0000C940C26E92F0E94342658F3BA17620768
:104DE00073078407950720F079F4A6F50C945626EE
:104DF0000EF4E0950B2EBA2FA02D0B01B9019001F6
:104E00000C01CA01A0011124FF27591B99F0593F39
:104E100050F4503E68F11A16F040A22F232F342F81
:104E20004427585FF3CF469537952795A795F040CF
:104E30005395C9F77EF41F16BA0B620B730B840BE4
:104E4000BAF09150A1F0FF0FBB1F661F771F881F9C
:104E5000C2F70EC0BA0F621F731F841F48F48795F4
:104E600077956795B795F7959E3F08F0B0CF9395E6
:104E7000880F08F09927EE0F9795879508950E945F
:104E800053270C9423260E941C2658F00E941526B6
:104E900040F029F45F3F29F00C940C2651110C943A
:104EA00057260C9412260E94342668F39923B1F3F6
:104EB000552391F3951B550BBB27AA276217730740
:104EC000840738F09F5F5F4F220F331F441FAA1FD4
:104ED000A9F335D00E2E3AF0E0E832D09150504090
:104EE000E695001CCAF72BD0FE2F29D0660F771F3E
:104EF000881FBB1F261737074807AB07B0E809F024
:104F0000BB0B802DBF01FF2793585F4F3AF09E3FA8
:104F1000510578F00C940C260C9457265F3FE4F36F
:104F2000983ED4F3869577956795B795F7959F5FEB
:104F3000C9F7880F911D9695879597F90895E1E037
:104F4000660F771F881FBB1F621773078407BA0796
:104F500020F0621B730B840BBA0BEE1F88F7E095F1
:104F600008950E943C2688F09F5798F0B92F992702
:104F7000B751B0F0E1F0660F771F881F991F1AF044
:104F8000BA95C9F714C0B13091F00E945626B1E02D
:104F900008950C945626672F782F8827B85F39F02C
:104FA000B93FCCF3869577956795B395D9F73EF4DD
:104FB00090958095709561957F4F8F4F9F4F089585
:104FC0000E947B2508F48FEF0895FA01EE0FFF1F72
:104FD000309621053105A1F16115710561F4803824
:104FE000BFE39B0749F168949038810561F08038F0
:104FF000BFEF9B0741F099234AF5FF3FE1053105DB
:10500000210519F1E8940894E795D901AA2329F418
:10501000AB2FBE2FF85FD0F310C0FF5F70F4A695E2
:10502000E0F7F73950F019F0FF3A38F49F779F9383
:105030000DD00F9007FC9058089546F00C9412265E
:1050400060E070E080E89FE308954FE79F775F930B
:105050004F933F932F930E94E5282F913F914F91BB
:105060005F910E949F250C9442280E947B25880B0B
:10507000990B089529F416F00C940C260C945626DE
:105080000C9412260E943C26A8F39638A0F707F845
:105090000F92E8942BE33AEA48EB5FE70E94B525CC
:1050A0000F920F920F924DB75EB70F920E942D296B
:1050B000E8E6F0E00E9474284F915F91EF91FF9134
:1050C000E595EE1FFF1F49F0FE57E0684427EE0FFD
:1050D000441FFA95E1F74195550B0E94A7280F90C0
:1050E00007FE0C949B280895DF93CF931F930F9393
:1050F000FF92EF92DF927B018C01689406C0DA2E5A
:10510000EF010E94B225FE01E894A5912591359109
:1051100045915591A6F3EF010E94EA26FE01970101
:10512000A801DA9469F7DF90EF90FF900F911F913B
:10513000CF91DF9108959B01AC0160E070E080E8C1
:105140009FE30C943F270C940C260C9461290E9439
:105150003C26D8F39923C9F3940F511DA3F3915022
:10516000504094F059F0882332F0660F771F881F63
:1051700091505040C1F79E3F51052CF7880F911D6B
:105180009695879597F908955F3FACF0983E9CF00F
:10519000BB27869577956795B79508F4B160939589
:1051A000C1F7BB0F58F711F460FFE8CF6F5F7F4F77
:1051B0008F4F9F4FE3CF0C94572616F00C94612924
:1051C0000C94122668940C940C260E943C26A8F39A
:1051D0009923C1F3AEF3DF93CF931F930F93FF9205
:1051E000C92FDD2788232AF02197660F771F881F94
:1051F000DAF720E030E040E85FEB9FE3883920F009
:10520000803E38F021968F770E94D326E0E9F0E0C7
:1052100004C00E94D326EDEBF0E00E9474288B01BD
:10522000BE01EC01FB2E6F5771097595771F880B36
:10523000990B0E94402528E132E741E35FE30E9499
:10524000B225AF2D9801AE01FF900F911F91CF9124
:10525000DF910E94EA260C942326FA01DC01AA0FB2
:10526000BB1F9B01AC01BF5728F4222733274427DB
:10527000507820C0B75190F4AB2F00244695379555
:105280002795011CA395D2F3002071F0220F331F44
:10529000441FB395DAF30ED00C94D2266130710519
:1052A000A0E88A07B94630F49B01AC01662777274E
:1052B00088279078309621F020833183428353836E
:1052C00008959F3F31F0915020F487957795679529
:1052D000B795880F911D9695879597F908950F9327
:1052E0001F93CF93DF938230910510F482E090E01A
:1052F000E0912D07F0912E0730E020E0B0E0A0E033
:10530000309799F42115310509F44AC0281B390B4F
:1053100024303105D8F58A819B816115710589F1A9
:10532000FB0193838283FE0111C040815181028180
:10533000138148175907E0F04817590799F4109757
:1053400061F012960C93129713961C933296CF012C
:10535000DF91CF911F910F91089500932D07109326
:105360002E07F4CF2115310551F04217530738F0BD
:10537000A901DB019A01BD01DF01F801C1CFEF01F5
:10538000F9CF90932E0780932D07CDCFFE01E20F2A
:10539000F31F819391932250310939832883D7CF0A
:1053A00020912B0730912C07232B41F420910601EB
:1053B0003091070130932C0720932B072091040193
:1053C000309105012115310541F42DB73EB74091CB
:1053D000080150910901241B350BE0912B07F09136
:1053E0002C07E217F307A0F42E1B3F0B28173907F1
:1053F00078F0AC014E5F5F4F2417350748F04E0F31
:105400005F1F50932C0740932B07819391939FCF5D
:10541000F0E0E0E09CCFCF93DF930097E9F0FC0150
:10542000329713821282A0912D07B0912E07ED01C1
:1054300030E020E01097A1F420813181820F931F8A
:1054400020912B0730912C072817390709F061C0EC
:10545000F0932C07E0932B07DF91CF910895EA0199
:10546000CE17DF07E8F54A815B819E0141155105A2
:10547000B1F7E901FB83EA8349915991C40FD51F24
:10548000EC17FD0761F4808191810296840F951FCE
:10549000E90199838883828193819B838A83F0E0E9
:1054A000E0E012968D919C9113970097B9F52D919C
:1054B0003C911197CD010296820F931F20912B07EB
:1054C00030912C072817390739F6309751F510928B
:1054D0002E0710922D07B0932C07A0932B07BCCF5B
:1054E000D383C28340815181840F951FC817D90788
:1054F00061F44E5F5F4F88819981480F591F518336
:1055000040838A819B81938382832115310509F031
:10551000B0CFF0932E07E0932D079ECFFD01DC0165
:10552000C0CF13821282D7CFB0E0A0E0EAE9FAE25E
:105530000C9475268C01009751F4CB010E946F29C1
:105540008C01C801CDB7DEB7E0E10C949126FC01D7
:10555000E60FF71F9C0122503109E217F30708F408
:105560009DC0D901CD91DC911197C617D70798F04E
:10557000C530D10530F3CE0104978617970708F39D
:10558000C61BD70B2297C193D1936D937C93CF0108
:105590000E940B2AD6CF5B01AC1ABD0A4C018C0EBF
:1055A0009D1EA0912D07B0912E07512C412CF12C5E
:1055B000E12C109731F580912B0790912C078815DD
:1055C000990509F05CC04616570608F058C080914E
:1055D000040190910501009741F48DB79EB7409169
:1055E000080150910901841B950BE817F90708F091
:1055F00055C0F0932C07E0932B07F901718360836A
:10560000A0CF8D919C91119712966C901297139642
:105610007C901397A815B90559F56C0142E0C40EAA
:10562000D11CCA14DB0420F1AC014A195B09DA0170
:105630001296159780F06282738251834083D9015C
:105640006D937C93E114F10471F0D7011396FC93F0
:10565000EE93129776CF22968C0F9D1FF9019183BE
:105660008083F301EFCFF0932E07E0932D0769CFEE
:105670004816590608F42C017D01D3019ACFCB01BD
:105680000E946F297C01009749F0AE01B8010E9489
:10569000562BC8010E940B2A870153CF10E000E06F
:1056A00050CF81E090E0F8940C94662BFB01DC0174
:1056B00002C001900D9241505040D8F70895FB016F
:1056C000DC0101900D920020E1F7089511E0C0E3A4
:1056D000D1E004C0FE010E94CC262196C133D1073F
:0656E000C9F7F894FFCFAA
:1056E600FFFFFFFF00002F0780000040145400401A
:1056F600105000000000DB01AE01430E8401A7013B
:10570600940185010000000016057604A3046305D4
:10571600D404B204C60400000000F40A76049A0A0F
:10572600420E000000000C0D7604430E420EF60DEC
:10573600F80CDF0CC00C00000000FB13E913D713B4
:10574600BB132E13A1124C12E5140D0A006E616EE6
:1057560000696E66006F766600616E616C6F675FEA
:1057660076616C20313A0020756E69745F76616CE3
:1057760020313A0020616E616C6F675F76616C2044
:10578600323A0020756E69745F76616C20323A0099
:1057960020002E307048006D732F636D004320503B
:1057A6003A0074656D70657261747572653A0027AA
:1057B60043203B45433A003B2072656C61793A00D1
:1057C6002743203B70483A00504F494E54205341DE
:1057D600564544005345542052414E4745204D4FAF
:1057E60044450043414C4942204D4F4445007048D2
:1057F6002F4543206D6574657200496E7A796E692E
:10580600657220446F6D7500646174612E6C6F67FC
:10581600007048203A004543203A006D61782070B8
:10582600683A006D61782065633A0064006C006335
:02583600000070
:00000001FF
